:100000000C945E000C9486000C9486000C94860080
:100010000C9486000C9486000C9486000C94860048
:100020000C9486000C9486000C9486000C94860038
:100030000C9486000C9486000C9486000C94860028
:100040000C94C1060C9486000C948F060C946906DF
:100050000C9486000C9486000C9486000C94860008
:100060000C940B070C94860000000000240027006D
:100070002A0000000000250028002B0004040404CE
:100080000404040402020202020203030303030342
:10009000010204081020408001020408102001021F
:1000A00004081020000000080002010000030407FB
:1000B000000000000000000039086F0911241FBE75
:1000C000CFEFD8E0DEBFCDBF23E0ACE9B1E001C0A7
:1000D0001D92A130B207E1F711E0A0E0B1E0EEE53A
:1000E000FCE102C005900D92AC39B107D9F710E0E0
:1000F000CDE5D0E004C02197FE010E94100CCC3564
:10010000D107C9F70E948F080C94220E0C940000AE
:10011000E091C101F091C201309729F010923702AD
:100120001092360209940895CF93DF93AC01E091C9
:100130003E02F0913F023097F1F0909139028091A8
:1001400038029817C0F090E0292F30E026173707C3
:1001500054F4D901AF55BE4FEA01C20FD31F8881B5
:100160008C939F5FF1CF1092390260933802CB01DC
:10017000DF91CF910994DF91CF910895CF92DF92D3
:10018000EF92FF920F931F93CF93DF936C017A014D
:100190008B01C0E0D0E0CE15DF0589F0D8016D916C
:1001A0008D01D601ED91FC910190F081E02DC60109
:1001B0000995892B11F47E0102C02196ECCFC7016D
:1001C000DF91CF911F910F91FF90EF90DF90CF9033
:1001D0000895FC01538D448D252F30E0842F90E04D
:1001E000821B930B541710F0CF9608950197089532
:1001F000FC01918D828D981761F0828DDF01A80F2F
:10020000B11D5D968C91928D9F5F9F73928F90E050
:1002100008958FEF9FEF0895FC01918D828D9817BF
:1002200031F0828DE80FF11D858D90E008958FEFFC
:100230009FEF0895FC01918D228D892F90E0805CC5
:100240009F4F821B91098F739927089588E492E04C
:100250000E941A0121E0892B09F420E0822F0895E1
:10026000FC01848DDF01A80FB11DA35ABF4F2C9153
:10027000848D90E001968F739927848FA689B78922
:100280002C93A089B1898C9180648C93938D848DFB
:10029000981306C00288F389E02D80818F7D8083CA
:1002A0000895EF92FF920F931F93CF93DF93EC018A
:1002B00081E0888F9B8D8C8D981305C0E889F98922
:1002C000808185FD24C0F62E0B8D10E00F5F1F4F3F
:1002D0000F731127E02E8C8DE8120CC00FB607FCAF
:1002E000FACFE889F989808185FFF5CFCE010E9498
:1002F0003001F1CF8B8DFE01E80FF11DE35AFF4F66
:10030000F0820B8FEA89FB898081806207C0EE89C9
:10031000FF896083E889F98980818064808381E036
:1003200090E0DF91CF911F910F91FF90EF90089592
:10033000CF93DF93EC01888D8823C9F0EA89FB898C
:10034000808185FD05C0A889B9898C9186FD0FC083
:100350000FB607FCF5CF808185FFF2CFA889B98958
:100360008C9185FFEDCFCE010E943001E7CFDF9168
:10037000CF91089580E090E0892B29F00E9426011A
:1003800081110C940000089590E0FC01EC55FF4FA2
:100390003491FC01E057FF4F2491FC01E458FF4FDA
:1003A000E491EE2309F43BC0332339F1333091F06B
:1003B00038F43130A9F0323001F584B58F7D12C0A8
:1003C000373091F03830A1F03430B9F480918000AA
:1003D0008F7D03C0809180008F77809380000DC057
:1003E00084B58F7784BD09C08091B0008F7703C03A
:1003F0008091B0008F7D8093B000F0E0EE0FFF1F82
:10040000EE58FF4FA591B4918FB7F894EC9161111C
:1004100003C020952E2301C02E2B2C938FBF08954F
:10042000CF93DF9390E0FC01E057FF4F2491FC0154
:10043000E458FF4F8491882361F190E0880F991F61
:10044000FC01E859FF4FC591D491FC01EE58FF4FD4
:10045000A591B491611109C09FB7F8948881209546
:1004600082238883EC912E230BC0623061F49FB706
:10047000F8943881822F809583238883EC912E2BEA
:100480002C939FBF06C08FB7F894E8812E2B28834A
:100490008FBFDF91CF9108953FB7F89480912F02DD
:1004A00090913002A0913102B091320226B5A89B02
:1004B00005C02F3F19F00196A11DB11D3FBFBA2FF6
:1004C000A92F982F8827820F911DA11DB11DBC0156
:1004D000CD0142E0660F771F881F991F4A95D1F71B
:1004E00008958F929F92AF92BF92CF92DF92EF9238
:1004F000FF926B017C010E944C024B015C01C11414
:10050000D104E104F104F1F00E944C02DC01CB01C2
:1005100088199909AA09BB09883E9340A105B1052C
:1005200070F321E0C21AD108E108F10888EE880EC4
:1005300083E0981EA11CB11CC114D104E104F10494
:1005400019F7DDCFFF90EF90DF90CF90BF90AF9085
:100550009F908F90089585ED8093BC008091BC00A2
:1005600084FDFCCF1092350208954091E301262FBF
:1005700030E0240F311D21323105DCF420913502A9
:100580002430C9F4FC0180E090E0861758F43091E3
:10059000E3012191DC01AD53BE4FA30FB11D2C939C
:1005A0000196F3CF8091E301680F6093E30180E04F
:1005B000089581E0089582E008950895E091390258
:1005C00080913802E81730F4F0E0EF55FE4F80815B
:1005D00090E008958FEF9FEF0895909139028091F8
:1005E0003802981750F4E92FF0E0EF55FE4F2081C4
:1005F00030E09F5F9093390202C02FEF3FEFC901B7
:1006000008958091380290E020913902821B91096F
:100610000895CF93DF9300D0CDB7DEB7CB01642F21
:1006200049835A830E94B5024981842F5A81952FAC
:100630000F900F90DF91CF910895CF93DF931F928A
:10064000CDB7DEB7698361E0CE0101960E94B502A5
:1006500081E090E00F90DF91CF910895089580E0C0
:1006600090E00895009769F0FC0101900020E9F7FF
:100670003197AF01481B590BBC0188E492E00C9400
:10068000BE0080E090E008958F929F92AF92BF925B
:100690000F931F93CF93DF93CDB7DEB7A1970FB61C
:1006A000F894DEBF0FBECDBF19A2423008F44AE075
:1006B0008E010F5D1F4F842E912CA12CB12CA50112
:1006C00094010E94EE0BE62FB901CA0101501109F5
:1006D000EA3014F4E05D01C0E95CD801EC93232B0F
:1006E000242B252B61F7C8010E943203A1960FB677
:1006F000F894DEBF0FBECDBFDF91CF911F910F9158
:10070000BF90AF909F908F9008954F925F926F929D
:100710007F928F929F92AF92BF92CF92DF92EF9291
:10072000FF926B017C01B42E9B01AC010E94E90B8E
:10073000882319F088E591E027C026013701E89465
:1007400077F82FEF3FEF4FE75FE7C301B2010E9459
:10075000E90B81110DC02FEF3FEF4FE75FE7C301BA
:10076000B2010E947B0918161CF48CE591E00CC0C4
:100770002FEF3FEF4FE75FE4C701B6010E94E40BA4
:10078000181684F480E691E0FF90EF90DF90CF9010
:10079000BF90AF909F908F907F906F905F904F90A1
:1007A0000C9432032FEF3FEF4FE75FECC701B60128
:1007B0000E947B0987FDE6CF20E030E0A901C70158
:1007C000B6010E947B0987FF11C0E0914802F091B9
:1007D00049020190F081E02D6DE288E492E00995F4
:1007E0004C01F7FAF094F7F8F09402C0812C912CA8
:1007F000A12C60E070E080E09FE3AB1441F020E0CA
:1008000030E040E251E40E94430BA394F6CF9B01F9
:10081000AC01C701B6010E94D70A2B013C010E941E
:10082000B50B6B017C010E9480099B01AC01C301E7
:10083000B2010E94D60A2B013C014AE0C701B60171
:100840000E9444037C01E80CF91CBB2069F0E09194
:100850004802F09149020190F081E02D6EE288E4B7
:1008600092E00995E80EF91EDB2CDD2021F120E055
:1008700030E040E251E4C301B2010E94E1092B01E2
:100880003C010E94B50B4B01A12CB12C4AE0C501E3
:10089000B4010E944403E80EF91EC501B4010E9490
:1008A00080099B01AC01C301B2010E94D60A2B0151
:1008B0003C01DA94DACFC701FF90EF90DF90CF9040
:1008C000BF90AF909F908F907F906F905F904F9070
:1008D0000895CF93DF9342E00E948503EC0184E604
:1008E00091E00E9432038C0F9D1FDF91CF910895FC
:1008F000CF93DF930E943203EC0184E691E00E94E3
:1009000032038C0F9D1FDF91CF9108950E940D0E31
:10091000EF92FF920F931F93CF93DF93EC017B0134
:100920008A0188819981009729F02A813B812417C7
:100930003507F8F4B8016F5F7F4F0E94430D0097B1
:1009400059F0998388831B830A832C813D81232B53
:1009500081F4FC0110820DC088819981009711F00B
:100960000E94AB0C198218821D821C821B821A8283
:1009700007C01D830C83B701888199810E941B0EDB
:10098000CE01DF91CF911F910F91FF90EF900895CD
:100990002F923F924F925F926F927F928F929F928F
:1009A000AF92BF92CF92DF92EF92FF920F931F937D
:1009B000CF93DF93CDB7DEB727970FB6F894DEBF9E
:1009C0000FBECDBF9091380280913902981709F47B
:1009D00067C185EE92E00E94ED02833009F056C0B7
:1009E00085EE92E00E94ED02082F8093A00185EE33
:1009F00092E00E94ED02182F80939F0185EE92E015
:100A00000E94ED0280939E01F02EE12C9701212B94
:100A1000890110939D0100939C01BC01772780E020
:100A200090E00E9480092AE037ED43E25CE30E94F7
:100A3000E1096B017C01B80180E090E00E9480092F
:100A40009B01AC01C701B6010E94D70A6093400226
:100A500070934102809342029093430287E691E0B3
:100A60000E943203609140027091410280914202E3
:100A70009091430242E00E9485038CE791E00E943E
:100A8000780460ED77E080E090E0E8C0823031F4F7
:100A900082E891E00E94780486E691E0853009F0D2
:100AA000DFC086E291E09F838E830AE011E090E24E
:100AB000492E9CEB592E9EEB692E9CE4792E312C0D
:100AC000212C90E29983A0E4AD83EE81FF81D08058
:100AD0003296FF83EE8361E08D2D0E94100261E06B
:100AE0008D2D0E94C40164EF71E080E090E00E94CF
:100AF00071028AE0E82EF12C812C912C540161E0E6
:100B000070E080E090E00E947102F2E4F0937C00DB
:100B100080917A00806480937A0080917A0086FDCB
:100B2000FCCF609178008091790070E0782B072EDF
:100B3000000C880B990B0E9482099B01AC01C50136
:100B4000B4010E94D70A4B015C0121E0E21AF108CE
:100B5000B1F620E030E040EA50E40E94E10920E0F4
:100B600038ED4FE156E40E94430B4B015C0160E01D
:100B70008D2D0E94C40160E08D2D0E94100220E0A6
:100B800030E040E250E4C501B4010E94D60A6B0196
:100B90007C0120E030E0A9010E94E40B181624F04B
:100BA000F7FAF094F7F8F09420E030E040EA50E4EF
:100BB000C501B4010E947B0987FF3CC0232D322D63
:100BC00049815D81C701B6010E947B0987FF32C060
:100BD000D8018D919D910D90BC91A02D89839A8310
:100BE000AB83BC83A501940160E070E080EA90E4EF
:100BF0000E94430B20E030E040E85FE30E94D60A09
:100C00009B01AC0169817A818B819C810E94430B9D
:100C10002B013C0189819A81AB81BC818093440284
:100C200090934502A0934602B09347023C2C2D2C92
:100C3000E982FD820C5F1F4FAE81BF81A453B1409A
:100C400009F043CF8DE891E00E943203C301B20165
:100C50000E94690464E670E080E090E00E94710206
:100C600040E050E066E671E087EF92E027960FB62D
:100C7000F894DEBF0FBECDBFDF91CF911F910F91D2
:100C8000FF90EF90DF90CF90BF90AF909F908F90AC
:100C90007F906F905F904F903F902F900C948804BE
:100CA00027960FB6F894DEBF0FBECDBFDF91CF9170
:100CB0001F910F91FF90EF90DF90CF90BF90AF907A
:100CC0009F908F907F906F905F904F903F902F906C
:100CD00008951F920F920FB60F9211242F933F93F6
:100CE0004F935F936F937F938F939F93AF93BF9334
:100CF000EF93FF9388E492E00E943001FF91EF911F
:100D0000BF91AF919F918F917F916F915F914F9123
:100D10003F912F910F900FBE0F901F9018951F922B
:100D20000F920FB60F9211242F938F939F93EF93EF
:100D3000FF93E0915802F09159028081E0915E02A8
:100D4000F0915F0282FD12C09081809161028F5FFD
:100D50008F7320916202821751F0E0916102F0E0FE
:100D6000E85BFD4F958F8093610201C08081FF9108
:100D7000EF919F918F912F910F900FBE0F901F9029
:100D800018951F920F920FB60F9211242F933F9335
:100D90008F939F93AF93BF9380912B0290912C02DE
:100DA000A0912D02B0912E0230912A0223E0230F50
:100DB0002D3720F40196A11DB11D05C026E8230F93
:100DC0000296A11DB11D20932A0280932B029093BD
:100DD0002C02A0932D02B0932E0280912F029091AD
:100DE0003002A0913102B09132020196A11DB11DD5
:100DF00080932F0290933002A0933102B09332027D
:100E0000BF91AF919F918F913F912F910F900FBE06
:100E10000F901F9018951F920F920FB60F921124EA
:100E20002F933F934F935F936F937F938F939F93F2
:100E3000AF93BF93EF93FF938091B900887F803683
:100E400009F49CC068F5883209F45BC090F48031E5
:100E500009F454C038F4882309F4F6C0883009F442
:100E60004DC0F6C0883109F44CC0803209F45DC031
:100E7000EFC0803409F468C048F4803309F455C0E9
:100E8000883309F0E5C080930602D8C0803509F4A4
:100E90004FC0883509F45DC0883409F0D9C0D6C088
:100EA000883909F4C7C0A8F4883709F467C038F452
:100EB000883609F463C0803709F460C0C9C0883837
:100EC00009F4B8C0803909F45FC0803809F0C0C0A7
:100ED0005BC0803B09F486C038F4803A09F466C0F0
:100EE000883A09F47FC0B4C0803C09F4A7C0883CAC
:100EF00009F4A4C0883B09F48AC0AAC080912902E1
:100F000010C09091280280912702981770F5E09107
:100F1000280281E08E0F80932802F0E0E95FFD4F08
:100F200080818093BB0085EC86C0809306028EC0D2
:100F3000E091280281E08E0F809328028091BB000F
:100F4000F0E0E95FFD4F80839091280280912702B5
:100F50006EC0E091280281E08E0F8093280280917C
:100F6000BB00F0E0E95FFD4F808380913402811186
:100F70006DC081E08093330284EA61C083E0809396
:100F8000350210920502CFCF80910502803208F021
:100F900051C0E091050281E08E0F8093050280919F
:100FA000BB00F0E0EB51FE4F8083BDCF85EC80931A
:100FB000BC001092350280910502803230F4E0913D
:100FC0000502F0E0EB51FE4F10826091050270E0E7
:100FD000E0913A02F0913B0285EE91E00995109282
:100FE000050236C084E0809335021092E40110922D
:100FF000E301E0913C02F0913D0209958091E3010B
:10100000811105C081E08093E3011092C301E0915A
:10101000E40181E08E0F8093E401F0E0ED53FE4F98
:1010200080818093BB009091E4018091E301981747
:1010300008F479CF85E88093BC000AC085EC8093E2
:10104000BC001092350204C0109206020E94AB024E
:10105000FF91EF91BF91AF919F918F917F916F9190
:101060005F914F913F912F910F900FBE0F901F9066
:101070001895E8E4F2E01382128288EE93E0A0E093
:10108000B0E084839583A683B78328E331E031837E
:10109000208325EC30E03587248724EC30E0378747
:1010A000268720EC30E0318B208B21EC30E0338B35
:1010B000228B22EC30E0358B248B26EC30E0378B12
:1010C000268B118E128E138E148EE5EEF2E01382B3
:1010D000128284839583A683B7838AE491E0918307
:1010E0008083E7EFF2E01182108213821282158270
:1010F000148240E050E066E671E0CF010E9488046F
:10110000E1EFF2E0118210821382128215821482C2
:1011100040E050E066E671E0CF010C9488047894DA
:1011200084B5826084BD84B5816084BD85B58260EC
:1011300085BD85B5816085BD80916E00816080939D
:101140006E00109281008091810082608093810006
:101150008091810081608093810080918000816016
:10116000809380008091B10084608093B100809171
:10117000B00081608093B00080917A008460809399
:101180007A0080917A00826080937A0080917A0060
:10119000816080937A0080917A00806880937A00E1
:1011A0001092C100E0915802F091590282E08083D0
:1011B000E0915402F09155021082E0915602F091B4
:1011C00057028FEC808310926002E0915C02F091F4
:1011D0005D0286E08083E0915A02F0915B0280819B
:1011E00080618083E0915A02F0915B028081886087
:1011F0008083E0915A02F0915B0280818068808355
:10120000E0915A02F0915B0280818F7D808388E5B6
:101210008093BA0088E890E090933D0280933C026E
:1012200084E990E090933B0280933A021092390255
:101230001092380210923702109236021092350244
:1012400081E0809334021092330261E082E10E94D7
:10125000C40161E083E10E94C4018091B9008E7FE6
:101260008093B9008091B9008D7F8093B90088E4A4
:101270008093B80085E48093BC0088EC94E0909360
:101280003F0280933E02C6E2D1E01881229661E0DF
:10129000812F0E94100260E0812F0E94C40160E053
:1012A000812F0E94100281E0C433D80771F7C12C4E
:1012B00088E1D82E8CE1E82E86E4F82EC092000159
:1012C000D0920101E0920201F09203016AE070E025
:1012D00080E090E00E9471020E94BA01EFCF8091FD
:1012E000F1029091F2020E94AB0C8091F702909172
:1012F000F8020C94AB0C0E94BD0908F481E008953B
:10130000E89409C097FB3EF490958095709561959F
:101310007F4F8F4F9F4F9923A9F0F92F96E9BB2755
:101320009395F695879577956795B795F111F8CFD1
:10133000FAF4BB0F11F460FF1BC06F5F7F4F8F4F3C
:101340009F4F16C0882311F096E911C0772321F032
:101350009EE8872F762F05C0662371F096E8862FCA
:1013600070E060E02AF09A95660F771F881FDAF721
:10137000880F9695879597F90895990F0008550F4E
:10138000AA0BE0E8FEEF16161706E807F907C0F00B
:1013900012161306E407F50798F0621B730B840B13
:1013A000950B39F40A2661F0232B242B252B21F4ED
:1013B00008950A2609F4A140A6958FEF811D811D8D
:1013C00008950E94F4090C94650A0E94570A38F0A7
:1013D0000E945E0A20F0952311F00C944E0A0C94A2
:1013E000540A11240C94990A0E94760A70F3959F6E
:1013F000C1F3950F50E0551F629FF001729FBB270C
:10140000F00DB11D639FAA27F00DB11DAA1F649FA7
:101410006627B00DA11D661F829F2227B00DA11D5A
:10142000621F739FB00DA11D621F839FA00D611DE0
:10143000221F749F3327A00D611D231F849F600D01
:10144000211D822F762F6A2F11249F5750409AF02A
:10145000F1F088234AF0EE0FFF1FBB1F661F771FB6
:10146000881F91505040A9F79E3F510580F00C9481
:101470004E0A0C94990A5F3FE4F3983ED4F38695A4
:1014800077956795B795F795E7959F5FC1F7FE2B21
:10149000880F911D9695879597F9089597F99F67FD
:1014A00080E870E060E008959FEF80EC08950024EC
:1014B0000A941616170618060906089500240A94B9
:1014C00012161306140605060895092E0394000C3F
:1014D00011F4882352F0BB0F40F4BF2B11F460FFCE
:1014E00004C06F5F7F4F8F4F9F4F089557FD9058F7
:1014F000440F551F59F05F3F71F04795880F97FBD8
:10150000991F61F09F3F79F0879508951216130691
:101510001406551FF2CF4695F1DF08C016161706C0
:101520001806991FF1CF86957105610508940895F5
:10153000E894BB2766277727CB0197F908952F9268
:101540003F924F925F926F927F928F929F92AF9253
:10155000BF92CF92DF92EF92FF920F931F93CF93A0
:10156000DF93CDB7DEB7CA1BDB0B0FB6F894DEBF37
:101570000FBECDBF09942A88398848885F846E845D
:101580007D848C849B84AA84B984C884DF80EE80A7
:10159000FD800C811B81AA81B981CE0FD11D0FB6B0
:1015A000F894DEBF0FBECDBFED0108955058BB27A4
:1015B000AA270E94EE0A0C94650A0E94570A38F086
:1015C0000E945E0A20F039F49F3F19F426F40C942F
:1015D000540A0EF4E095E7FB0C944E0AE92F0E94A2
:1015E000760A58F3BA17620773078407950720F045
:1015F00079F4A6F50C94980A0EF4E0950B2EBA2F08
:10160000A02D0B01B90190010C01CA01A001112408
:10161000FF27591B99F0593F50F4503E68F11A16B4
:10162000F040A22F232F342F4427585FF3CF469545
:1016300037952795A795F0405395C9F77EF41F1667
:10164000BA0B620B730B840BBAF09150A1F0FF0F31
:10165000BB1F661F771F881FC2F70EC0BA0F621F1D
:10166000731F841F48F4879577956795B795F7950D
:101670009E3F08F0B0CF9395880F08F09927EE0FA2
:101680009795879508950E94570B0C94650A0E94C0
:101690005E0A58F00E94570A40F029F45F3F29F093
:1016A0000C944E0A51110C94990A0C94540A0E94FD
:1016B000760A68F39923B1F3552391F3951B550BE3
:1016C000BB27AA2762177307840738F09F5F5F4F15
:1016D000220F331F441FAA1FA9F335D00E2E3AF054
:1016E000E0E832D091505040E695001CCAF72BD06C
:1016F000FE2F29D0660F771F881FBB1F26173707BD
:101700004807AB07B0E809F0BB0B802DBF01FF27EE
:1017100093585F4F3AF09E3F510578F00C944E0A73
:101720000C94990A5F3FE4F3983ED4F3869577953D
:101730006795B795F7959F5FC9F7880F911D9695A7
:10174000879597F90895E1E0660F771F881FBB1F03
:10175000621773078407BA0720F0621B730B840BB0
:10176000BA0BEE1F88F7E09508950E947E0A88F074
:101770009F5798F0B92F9927B751B0F0E1F0660F55
:10178000771F881F991F1AF0BA95C9F714C0B13096
:1017900091F00E94980AB1E008950C94980A672F7E
:1017A000782F8827B85F39F0B93FCCF386957795C5
:1017B0006795B395D9F73EF49095809570956195AE
:1017C0007F4F8F4F9F4F08950E94BD0908F48FEF00
:1017D00008950E94BD09880B990B0895A1E21A2E65
:1017E000AA1BBB1BFD010DC0AA1FBB1FEE1FFF1FC5
:1017F000A217B307E407F50720F0A21BB30BE40B15
:10180000F50B661F771F881F991F1A9469F760955B
:101810007095809590959B01AC01BD01CF01089515
:10182000EE0FFF1F0590F491E02D0994CF93DF9305
:101830008230910510F482E090E0E091FF02F09197
:10184000000320E030E0C0E0D0E0309711F14081AB
:10185000518148175907C0F04817590761F4828130
:101860009381209719F09B838A832BC09093000368
:101870008093FF0226C02115310519F04217530746
:1018800018F49A01BE01DF01EF010280F381E02D1F
:10189000DCCF2115310509F1281B390B2430310526
:1018A00090F412968D919C9113976115710521F01A
:1018B000FB019383828304C0909300038093FF0213
:1018C000FD01329644C0FD01E20FF31F8193919315
:1018D000225031092D933C933AC02091FD02309162
:1018E000FE02232B41F42091060130910701309331
:1018F000FE022093FD022091040130910501211583
:10190000310541F42DB73EB74091080150910901CE
:10191000241B350BE091FD02F091FE02E217F30764
:10192000A0F42E1B3F0B2817390778F0AC014E5F4F
:101930005F4F2417350748F04E0F5F1F5093FE028C
:101940004093FD028193919302C0E0E0F0E0CF016B
:10195000DF91CF9108950F931F93CF93DF9300975B
:1019600009F48CC0FC013297138212820091FF02AD
:10197000109100030115110581F420813181820F3E
:10198000931F2091FD023091FE022817390779F547
:10199000F093FE02E093FD0271C0D80140E050E0F8
:1019A000AE17BF0750F412962D913C911397AD01DD
:1019B0002115310509F1D901F3CF9D01DA013383F6
:1019C000228360817181860F971F8217930769F4C4
:1019D000EC0128813981260F371F2E5F3F4F31835D
:1019E00020838A819B8193838283452B29F4F09302
:1019F0000003E093FF0242C01396FC93EE9312970C
:101A0000ED01499159919E01240F351FE217F3070B
:101A100071F480819181840F951F029611969C9399
:101A20008E938281938113969C938E931297E0E01C
:101A3000F0E0D80112968D919C911397009719F0C0
:101A4000F8018C01F6CF8D919C9198012E5F3F4F4C
:101A5000820F931F2091FD023091FE022817390753
:101A600069F4309729F4109200031092FF0202C02B
:101A7000138212821093FE020093FD02DF91CF9138
:101A80001F910F910895A0E0B0E0E9E4FDE00C940F
:101A9000A30AEC01009721F4CB010E94160CB8C0F8
:101AA000FC01E60FF71F9C0122503109E217F307F2
:101AB00008F4ACC0D9010D911C91119706171707B6
:101AC000B0F00530110508F49FC0C80104978617CF
:101AD000970708F499C002501109061B170B0193D0
:101AE00011936D937C93CF010E94AB0C8DC05B0171
:101AF000A01AB10A4C01800E911EA091FF02B09174
:101B0000000340E050E0E12CF12C109709F44AC0AA
:101B1000A815B905D1F56D907C901197630182E00D
:101B2000C80ED11CCA14DB0480F1A3014A195B0959
:101B30006A0182E0C80ED11C1296BC9012971396CF
:101B4000AC91B5E0CB16D10440F0B282A3835183AF
:101B50004083D9016D937C930AC00E5F1F4FC30170
:101B6000800F911FF90191838083EB2DFA2FE114EF
:101B7000F10431F0D7011396FC93EE93129744C011
:101B8000F0930003E093FF023FC08D919C91119769
:101B90004817590708F4AC017D0112960D90BC91CD
:101BA000A02DB3CF8091FD029091FE02881599057A
:101BB000E1F446175707C8F480910401909105019C
:101BC000009741F48DB79EB74091080150910901EB
:101BD000841B950BE817F907C8F4F093FE02E09315
:101BE000FD02F901718360830FC0CB010E94160CC6
:101BF0007C01009759F0A801BE010E94120ECE018F
:101C00000E94AB0CC70104C0CE0102C080E090E08E
:101C1000CDB7DEB7EEE00C94BF0A81E090E0F89417
:101C20000C94220EFB01DC0102C001900D92415088
:101C30005040D8F70895FB01DC0101900D9200207F
:101C4000E1F7089510E0CDE5D0E004C0FE010E9468
:0E1C5000100C2196CE35D107C9F7F894FFCFBE
:101C5E000000803F0000010380000000A34300E865
:101C6E0019463333794200988F4500005E43008059
:101C7E007944CD0CE9430500060007000800090071
:101C8E000A000B00000000005101BE00E90098019F
:101C9E001A01F8000C01000000001D0309032F03B8
:101CAE00DD020103ED02DE026E616E00696E6600FA
:101CBE006F7666000D0A002D2D3E2056616C6F72F8
:101CCE0020726563656269646F3A2000206F686DEB
:101CDE007300486162696C697461646F0076616C4F
:0C1CEE006F7265734C69646F732C00000A
:107800000C94343C0C94513C0C94513C0C94513CE1
:107810000C94513C0C94513C0C94513C0C94513CB4
:107820000C94513C0C94513C0C94513C0C94513CA4
:107830000C94513C0C94513C0C94513C0C94513C94
:107840000C94513C0C94513C0C94513C0C94513C84
:107850000C94513C0C94513C0C94513C0C94513C74
:107860000C94513C0C94513C11241FBECFEFD8E036
:10787000DEBFCDBF11E0A0E0B1E0ECE9FFE702C060
:1078800005900D92A230B107D9F712E0A2E0B1E065
:1078900001C01D92AD30B107E1F70E942D3D0C945F
:1078A000CC3F0C94003C982F959595959595959582
:1078B000905D8F708A307CF0282F295A8091C0000B
:1078C00085FFFCCF9093C6008091C00085FFFCCF60
:1078D0002093C6000895282F205DF0CF982F809127
:1078E000C00085FFFCCF9093C6000895EF92FF92F1
:1078F0000F931F93EE24FF2487018091C00087FD22
:1079000017C00894E11CF11C011D111D81E4E8164B
:1079100082E4F8068FE0080780E0180770F3E09132
:107920000401F091050109958091C00087FFE9CF1E
:107930008091C6001F910F91FF90EF9008950E94D3
:10794000763C982F8091C00085FFFCCF9093C600B5
:1079500091362CF490330CF09053892F089597555D
:10796000892F08951F930E949F3C182F0E949F3CCF
:107970001295107F810F1F9108951F93182F882350
:1079800021F00E94763C1150E1F71F9108951F935A
:10799000182F0E94763C803249F0809103018F5F5E
:1079A000809303018530C1F01F9108958091C0003C
:1079B00085FFFCCF84E18093C6008091C00085FFE5
:1079C000FCCF1093C6008091C00085FFFCCF80E102
:1079D0008093C6001F910895E0910401F091050184
:1079E00009951F9108950E94763C803241F0809164
:1079F00003018F5F80930301853081F008958091AA
:107A0000C00085FFFCCF84E18093C6008091C00058
:107A100085FFFCCF80E18093C6000895E0910401CA
:107A2000F09105010995089540E951E08823A1F0FE
:107A30002D9A28EE33E0FA013197F1F721503040CA
:107A4000D1F72D9828EE33E0FA013197F1F7215064
:107A50003040D1F7815061F708953F924F925F9285
:107A60006F927F928F929F92AF92BF92CF92DF924E
:107A7000EF92FF920F931F93CF93DF93000080E16B
:107A80008093C4001092C50088E18093C10086E015
:107A90008093C2005098589A259A81E00E94143D24
:107AA00024E1F22E9EE1E92E85E9D82E0FE0C02ECA
:107AB00010E1B12EAA24A394B1E49B2EA6E58A2E50
:107AC000F2E57F2EE0E26E2E79E4572E63E5462E36
:107AD00050E5352E0E94763C8033B1F18133B9F107
:107AE000803409F46FC0813409F476C0823409F41B
:107AF00085C0853409F488C0803531F1823521F1A3
:107B0000813511F1853509F485C0863509F48DC0BC
:107B1000843609F496C0843709F403C1853709F423
:107B200072C1863709F466C0809103018F5F80932C
:107B30000301853079F6E0910401F0910501099582
:107B40000E94763C803351F60E94F33CC3CF0E94E2
:107B5000763C803249F78091C00085FFFCCFF092DF
:107B6000C6008091C00085FFFCCF9092C600809136
:107B7000C00085FFFCCF8092C6008091C00085FFC9
:107B8000FCCF7092C6008091C00085FFFCCF609250
:107B9000C6008091C00085FFFCCF5092C600809146
:107BA000C00085FFFCCF4092C6008091C00085FFD9
:107BB000FCCF3092C6008091C00085FFFCCFB09210
:107BC000C60088CF0E94763C863808F4BDCF0E945C
:107BD000763C0E94F33C7ECF0E94763C803809F4CC
:107BE0009CC0813809F40BC1823809F43CC1883942
:107BF00009F48FC080E00E94C73C6CCF84E10E94F2
:107C0000BD3C0E94F33C66CF85E00E94BD3C0E94D3
:107C1000F33C60CF0E94763C809306010E94763C44
:107C2000809307010E94F33C55CF0E94763C80333D
:107C300009F41DC183E00E94BD3C80E00E94C73C66
:107C400049CF0E94763C809309020E94763C809343
:107C5000080280910C028E7F80930C020E94763C79
:107C6000853409F415C18091080290910902892B8D
:107C700089F000E010E00E94763CF801E85FFE4FDA
:107C800080830F5F1F4F80910802909109020817AF
:107C9000190788F30E94763C803209F045CF809125
:107CA0000C0280FF01C16091060170910701660F0F
:107CB000771F7093070160930601A0910802B091AD
:107CC00009021097C9F0E8E0F1E09B01AD014E0F09
:107CD0005F1FF999FECF32BD21BD819180BDFA9A17
:107CE000F99A2F5F3F4FE417F50799F76A0F7B1F4B
:107CF00070930701609306018091C00085FFFCCF5F
:107D0000F092C6008091C00085FFFCCFB092C60003
:107D1000E1CE83E00E94C73CDDCE82E00E94C73CFA
:107D2000D9CE0E94763C809309020E94763C8093D3
:107D300008028091060190910701880F991F909386
:107D40000701809306010E94763C853409F4A6C0A1
:107D500080910C028E7F80930C020E94763C8032D0
:107D600009F0B8CE8091C00085FFFCCFF092C6002C
:107D7000609108027091090261157105B9F140E046
:107D800050E080910C02A82FA170B82FB27011C0E2
:107D9000BB2309F45CC0E0910601F0910701319624
:107DA000F0930701E09306014F5F5F4F46175707B7
:107DB000E8F4AA2369F3F999FECF209106013091E6
:107DC000070132BD21BDF89A90B58091C00085FFB2
:107DD000FCCF9093C6002F5F3F4F30930701209355
:107DE00006014F5F5F4F4617570718F38091C00099
:107DF00085FDE5CE8091C00085FFF8CFE0CE81E023
:107E00000E94C73C67CE0E94763C803209F08CCE3F
:107E10008091C00085FFFCCFF092C6008091C00029
:107E200085FFFCCFE092C6008091C00085FFFCCFAB
:107E3000D092C6008091C00085FFFCCFC092C600E2
:107E40008091C00085FFFCCFB092C60043CEE09188
:107E50000601F091070194918091C00085FFFCCF4D
:107E60009093C6009CCF80E10E94C73C33CE0E9415
:107E7000763C0E94763C182F0E94763C112309F430
:107E800083C0113009F484C08FE00E94C73C22CE29
:107E900080910C02816080930C02E5CE80910C02EF
:107EA000816080930C0259CF809107018823880F4D
:107EB000880B8A2180930B02809106019091070123
:107EC000880F991F90930701809306018091080203
:107ED00080FF09C080910802909109020196909359
:107EE000090280930802F894F999FECF1127E091D6
:107EF0000601F0910701C8E0D1E08091080290915D
:107F00000902103091F40091570001700130D9F34B
:107F100003E000935700E89500915700017001308D
:107F2000D9F301E100935700E89509901990009169
:107F3000570001700130D9F301E000935700E89534
:107F40001395103498F011270091570001700130FB
:107F5000D9F305E000935700E895009157000170B0
:107F60000130D9F301E100935700E895329602976A
:107F700009F0C7CF103011F00296E5CF112480919F
:107F8000C00085FFB9CEBCCE8EE10E94C73CA2CD19
:0C7F900085E90E94C73C9ECDF894FFCF0D
:027F9C00800063
:040000030000780081
:00000001FF
