:1000000026C1000055C1000053C1000051C10000CD
:100010004FC100004DC100004BC1000049C10000AC
:1000200047C1000045C1000043C1000041C10000BC
:100030003FC100003DC100003BC1000039C10000CC
:1000400037C1000035C1000033C1000031C10000DC
:100050002FC100002DC100002BC10000F7C500001A
:1000600027C1000015C50000EAC4000021C100003E
:100070001FC100001DC100001BC1000019C100000C
:1000800017C1000015C1000013C1000011C100001C
:10009000ADC4000082C400000BC10000A7C6000070
:1000A00007C1000005C1000003C1000001C100003C
:1000B000FFC00000FDC00000FBC00000F9C0000050
:1000C000F7C00000F5C00000F3C00000F1C0000060
:1000D000EFC00000EDC00000EBC00000E9C0000070
:1000E000E7C00000A005A305920596059A05DA056C
:1000F000A705AB05B105B505B905BF05C305C7051E
:10010000DA05CD05D105D5054E414E494E49545924
:10011000494E46CDCCCC3D0AD7233C17B7D13877D2
:10012000CC2B329595E6241FB14F0A0000204100E8
:1001300000C84200401C4620BCBE4CCA1B0E5AAE32
:10014000C59D7400000A0B02090C0D0E080703047C
:10015000010000000000000000000000000000009E
:10016000000000000000000000000000000000127D
:10017000111000000000000000000000000000005E
:100180000000000000000000000000220025002800
:10019000002B002E00310034000201000005010890
:1001A000010B0100002100240027002A002D00304F
:1001B00000330001010000040107010A01050505E3
:1001C00005070508080808020202020A0A080804CE
:1001D00004040401010101010101010303030303FC
:1001E000030303040707070C0C0C0C0C0C0C0C028B
:1001F00002020206060606060606060B0B0B0B0B92
:100200000B0B0B010210202008081020401020408A
:1002100080020102010804020101020408102040CA
:1002200080804020100804020180040201804020E8
:100230001008040201080402010102040810204011
:1002400080010204081020408000910D750D1124DA
:100250001FBECFEFD1E2DEBFCDBF00E00CBF25E077
:10026000AEE3B3E001C01D92A237B207E1F713E09D
:10027000A0E0B2E0EEEEF7E200E00BBF02C00790B4
:100280000D92AE33B107D9F711E0C6E2D1E000E03C
:1002900006C021970109802FFE010E94B011C532CE
:1002A000D10780E00807A9F70E94D00A0C94E61352
:1002B000A7CE0895CF93DF93EC012FB7F8948091E8
:1002C0008A0390918B03A0918C03B0918D032FBF73
:1002D00088879987AA87BB87E881F9810284F3859B
:1002E000E02DCE01199597FF1EC02FB7F89480918D
:1002F0008A0390918B03A0918C03B0918D032FBF43
:10030000488559856A857B85841B950BA60BB70BA1
:100310004C815D816E817F8184179507A607B707A1
:10032000D8F28FEF9FEFDF91CF910895CF92DF92B8
:10033000EF92FF920F931F93CF93DF936C017A019B
:100340008B01C0E0D0E0CE15DF0589F0D8016D91BA
:100350008D01D601ED91FC910190F081E02DC60157
:100360001995892B11F47E0102C02196ECCFC701AB
:10037000DF91CF911F910F91FF90EF90DF90CF9081
:100380000895FC01A089B1898C91A689B78982FD65
:100390000FC09C91818D8F5F8F73228D821749F0E2
:1003A000218DDF01A20FB11D5D969C93818F089571
:1003B0008C910895FC01538D448D252F30E0842FBE
:1003C00090E0821B930B541710F0CF96089501977D
:1003D0000895FC01918D828D981761F0828DDF0167
:1003E000A80FB11D5D968C91928D9F5F9F73928F28
:1003F00090E008958FEF9FEF0895FC01918D828D1D
:10040000981731F0828DE80FF11D858D90E00895E9
:100410008FEF9FEF0895FC01918D228D892F90E041
:10042000805C9F4F821B91098F739927089584EEFA
:1004300093E0F1DF21E0892B09F420E0822F089579
:1004400081E894E0E8DF21E0892B09F420E0822FA5
:100450000895FC01848DDF01A80FB11DA35ABF4F81
:100460002C91848D90E001968F739927848FA689B3
:10047000B7892C93A089B1898C9180648C93938DDA
:10048000848D981306C00288F389E02D80818F7DCA
:1004900080830895EF92FF920F931F93CF93DF9382
:1004A000EC0181E0888F9B8D8C8D981305C0E889C5
:1004B000F989808185FD23C0F62E0B8D10E00F5F3A
:1004C0001F4F0F731127E02E8C8DE8120BC00FB653
:1004D00007FCFACFE889F989808185FFF5CFCE0145
:1004E000B8DFF2CF8B8DFE01E80FF11DE35AFF4F0D
:1004F000F0820B8FEA89FB898081806207C0EE89D8
:10050000FF896083E889F98980818064808381E044
:1005100090E0DF91CF911F910F91FF90EF900895A0
:10052000CF93DF93EC01888D8823C1F0EA89FB89A2
:10053000808185FD05C0A889B9898C9186FD0EC092
:100540000FB607FCF5CF808185FFF2CFA889B98966
:100550008C9185FFEDCFCE017CDFE8CFDF91CF918D
:10056000089580E090E0892B19F06ADF811120C0A6
:1005700080E090E0892B19F05ADF81111CC080E0E7
:1005800090E0892B41F080E090E0892B21F00E94DF
:100590000000811113C080E090E0892BA1F080E081
:1005A00090E0892B81F00E94000081110AC008951B
:1005B0000E940000DDCF0E940000E1CF0E940000F9
:1005C000EACF0C940000089585ED8093BC008091E3
:1005D000BC0084FDFCCF1092BF03089540916003DE
:1005E000262F30E0240F311D21323105DCF420911B
:1005F000BF032430C9F4FC0180E090E0861758F472
:10060000309160032191DC01A25CBC4FA30FB11DAE
:100610002C930196F3CF80916003680F6093600381
:1006200080E0089581E0089582E00895089581E0D2
:1006300090E030918F0320918E03321710F480E008
:1006400090E0919581959109089580918F03909103
:100650008E03891730F48F5F80938F0380E090E0E2
:1006600008958FEF9FEF089580918E0390E0209181
:100670008F03821B91090895CF92DF92EF92FF9230
:100680000F931F93CF93DF937C01262F972F8A011F
:100690008091C003882391F0C62FD72F6E01C40E1E
:1006A000D51ECC15DD0569F06991D701ED91FC915E
:1006B0000190F081E02DC7011995F3CF642F822FAF
:1006C0008DDFC801DF91CF911F910F91FF90EF90C7
:1006D000DF90CF900895CF93DF931F92CDB7DEB711
:1006E00069832091C0032223D1F02091E3032032BB
:1006F00040F021E030E0FC013383228380E090E091
:1007000014C08091C103E82FF0E0EE53FC4F9981B3
:1007100090838F5F8093C1038093E30304C061E003
:10072000CE0101965BDF81E090E00F90DF91CF91E9
:100730000895089580E090E008950E94C913FC0197
:1007400024813581232B31F421E061157105A1F05D
:10075000FB0108C0FC01808191816115710531F4B4
:1007600021E0FC018081882339F005C00E94D61366
:1007700021E0892B09F020E0822F0895FC0180817F
:1007800091810C944D120F931F93CF93DF93EC0143
:1007900088819981009729F02A813B8126173707A4
:1007A00088F48B016F5F7F4F0E94E512009761F024
:1007B000998388831B830A832C813D81232B11F429
:1007C000FC01108281E001C080E0DF91CF911F9198
:1007D0000F910895EF92FF920F931F93CF93DF93A2
:1007E0001F921F92CDB7DEB78C0169831A82FC017C
:1007F000E480F580FFEFEF1AFF0AB701C4DF88231A
:1008000081F0F8012081318184819581BE016F5F83
:100810007F4F820F931F0E94DF13F801F582E4825D
:1008200081E00F900F90DF91CF911F910F91FF907A
:10083000EF900895EF92FF920F931F93CF93DF9362
:10084000EC017B018A01BA019EDF28813981811187
:100850000DC02115310519F0C9010E944D121982F0
:1008600018821D821C821B821A8206C01D830C8383
:10087000B701C9010E94DF13CE01DF91CF911F9113
:100880000F91FF90EF900895FC0111821082138266
:100890001282158214826115710549F0FB010190E5
:1008A0000020E9F73197AF01461B570BC3CF0895DE
:1008B0000F931F93CF93DF93EC018B016DEE72E0EA
:1008C000E3DFC801F7DC97FD04C0682FCE0182DFAB
:1008D000F8CFCE01DF91CF911F910F91089561154F
:1008E000710579F0FB0101900020E9F73197AF0124
:1008F000461B570BDC01ED91FC910280F381E02D4A
:10090000199480E090E008954F925F926F927F92E9
:10091000EF92FF920F931F93CF93DF93CDB7DEB784
:10092000A1970FB6F894DEBF0FBECDBF7C01FA01D0
:10093000CB0119A2223008F42AE08E010F5D1F4F6F
:10094000422E512C612C712CBF01A30192010E94F7
:100950008E11F901CA01015011096A3014F4605D69
:1009600001C0695CD8016C93232B242B252B61F7E4
:10097000B801C701B4DFA1960FB6F894DEBF0FBE71
:10098000CDBFDF91CF911F910F91FF90EF907F909E
:100990006F905F904F900895A2CF1F920F920FB665
:1009A0000F9211240BB60F922F933F934F935F93A7
:1009B0006F937F938F939F93AF93BF93EF93FF9327
:1009C00084EE93E046DDFF91EF91BF91AF919F914F
:1009D0008F917F916F915F914F913F912F910F90E8
:1009E0000BBE0F900FBE0F901F9018951F920F9285
:1009F0000FB60F9211240BB60F922F933F934F9384
:100A00005F936F937F938F939F93AF93BF93EF9376
:100A1000FF9384EE93E0B5DCFF91EF91BF91AF912E
:100A20009F918F917F916F915F914F913F912F9106
:100A30000F900BBE0F900FBE0F901F9018951F9236
:100A40000F920FB60F9211240BB60F922F933F9374
:100A50004F935F936F937F938F939F93AF93BF93C6
:100A6000EF93FF9381E894E0F4DCFF91EF91BF9165
:100A7000AF919F918F917F916F915F914F913F9136
:100A80002F910F900BBE0F900FBE0F901F901895D7
:100A90001F920F920FB60F9211240BB60F922F9345
:100AA0003F934F935F936F937F938F939F93AF93F6
:100AB000BF93EF93FF9381E894E063DCFF91EF91A4
:100AC000BF91AF919F918F917F916F915F914F9166
:100AD0003F912F910F900BBE0F900FBE0F901F9064
:100AE0001895362F90E0FC01ED5BFE4F4491FC0120
:100AF000ED5FFD4F2491FC01E354FE4F9491992347
:100B000009F46BC0442309F455C050E0FA01319751
:100B1000E231F10508F04EC08827EE58FF4F8F4FA5
:100B20000C94B011809180008F7707C08091800075
:100B30008F7D03C080918000877F809380003AC0C2
:100B400084B58F7702C084B58F7D84BD33C080911A
:100B5000B0008F7703C08091B0008F7D8093B0008C
:100B600029C0809190008F7707C0809190008F7D81
:100B700003C080919000877F809390001BC080917C
:100B8000A0008F7707C08091A0008F7D03C0809167
:100B9000A000877F8093A0000DC0809120018F77F7
:100BA00007C0809120018F7D03C080912001877F45
:100BB00080932001E92FF0E0EE0FFF1FE757FE4F73
:100BC000A591B4918FB7F894EC91311103C02095A1
:100BD0002E2301C02E2B2C938FBF0895CF93DF932C
:100BE000EC0160E08E817DDF61E08E817ADF60E084
:100BF0008E8177DF8BE891E00197F1F7DF91CF915C
:100C000008953FB7F8948091860390918703A0914F
:100C10008803B091890326B5A89B05C02F3F19F022
:100C20000196A11DB11D3FBFBA2FA92F982F88276C
:100C3000820F911DA11DB11DBC01CD0142E0660FC7
:100C4000771F881F991F4A95D1F708951F920F9219
:100C50000FB60F9211242F933F938F939F93AF93CF
:100C6000BF9380918A0390918B03A0918C03B091E4
:100C70008D033091850323E0230F2D3720F4019657
:100C8000A11DB11D05C026E8230F0296A11DB11DAF
:100C90002093850380938A0390938B03A0938C0306
:100CA000B0938D038091860390918703A091880370
:100CB000B09189030196A11DB11D80938603909385
:100CC0008703A0938803B0938903BF91AF919F914D
:100CD0008F913F912F910F900FBE0F901F901895FD
:100CE000CF92DF92EF92FF920F931F93CF93DF93F8
:100CF0007C016C0187E0C80ED11CC0E0D0E0062F5B
:100D000010E0B8010C2E02C0759567950A94E2F7C1
:100D10006170F60181916F01E4DE2196C430D10546
:100D200081F7C701DF91CF911F910F91FF90EF9055
:100D3000DF90CF9053CFCF92DF92EF92FF920F933D
:100D40001F93CF93DF93EC01F62E642F8C81C9DEC5
:100D50008D818F3F11F060E0C4DE8F850F2D10E094
:100D600084FF23C06E0187E0C80ED11CE12CF12C5A
:100D7000B8010E2C02C0759567950A94E2F7617070
:100D8000F60181916F01ADDEFFEFEF1AFF0A88E0F7
:100D9000E816F10469F7CE01DF91CF911F910F9111
:100DA000FF90EF90DF90CF9019CFB80184E0759558
:100DB00067958A95E1F7CE0193DF6F2DCE01DF9124
:100DC000CF911F910F91FF90EF90DF90CF9088CF40
:100DD00041E0B1DF81E090E0089540E0ACCF61E018
:100DE000FCDF8BE39FE10197F1F708951F920F92CB
:100DF0000FB60F9211240BB60F922F933F934F9380
:100E00005F936F937F938F939F93AF93BF93EF9372
:100E1000FF938091B900887F803609F49CC068F503
:100E2000883209F45BC090F4803109F454C038F47E
:100E3000882309F4F6C0883009F44DC0F5C0883124
:100E400009F44CC0803209F45DC0EEC0803409F46E
:100E500068C048F4803309F455C0883309F0E4C011
:100E60008093BD03D8C0803509F44FC0883509F49C
:100E70005DC0883409F0D8C0D6C0883909F4C7C02D
:100E8000A8F4883709F467C038F4883609F463C0D9
:100E9000803709F460C0C8C0883809F4B8C0803908
:100EA00009F45FC0803809F0BFC05BC0803B09F423
:100EB00086C038F4803A09F466C0883A09F47FC0E5
:100EC000B3C0803C09F4A7C0883C09F4A4C0883BA7
:100ED00009F48AC0A9C080919A0310C09091BC0304
:100EE0008091BB03981770F5E091BC0381E08E0FF1
:100EF0008093BC03F0E0E556FC4F80818093BB00FB
:100F000085EC86C08093BD038EC0E091BC0381E078
:100F10008E0F8093BC038091BB00F0E0E556FC4F40
:100F200080839091BC038091BB036EC0E091BC03B1
:100F300081E08E0F8093BC038091BB00F0E0E5560A
:100F4000FC4F80838091BE0381116DC081E080934E
:100F5000990384EA61C083E08093BF031092840305
:100F6000CFCF80918403803208F051C0E091840398
:100F700081E08E0F809384038091BB00F0E0EC59F8
:100F8000FC4F8083BDCF85EC8093BC001092BF03E3
:100F900080918403803230F4E0918403F0E0EC59D6
:100FA000FC4F10826091840370E0E0916203F09145
:100FB000630384E693E019951092840335C084E0BE
:100FC0008093BF031092610310926003E0915E036F
:100FD000F0915F03199580916003811105C081E054
:100FE0008093600310923E03E091610381E08E0FD5
:100FF00080936103F0E0E25CFC4F80818093BB0052
:101000009091610380916003981708F479CF85E887
:101010008093BC0009C085EC8093BC001092BF0394
:1010200003C01092BD03D0DAFF91EF91BF91AF9151
:101030009F918F917F916F915F914F913F912F91F0
:101040000F900BBE0F900FBE0F901F90189590E061
:10105000FC01ED5FFD4F2491FC01E354FE4F8491B0
:10106000882399F090E0880F991FFC01ED55FE4F01
:10107000A591B491FC01E757FE4F859194918FB7EC
:10108000F894EC91E22BEC938FBF0895EF92FF92CE
:101090000F931F93CF93DF93EC01623018F08F858D
:1010A00088608F876B8B1C8A80E48D8B80E18E8BB0
:1010B00080E58F8B8C81CBDF8D818F3F09F0C7DF7F
:1010C0008E81C5DF7E0187E0E80EF11C00E010E0B4
:1010D0008F8584FD03C084E090E002C088E090E04A
:1010E000081719073CF4F70181917F01B0DF0F5F0A
:1010F0001F4FEECF8BE39DE00197F1F760E08C810D
:10110000F0DC60E08E81EDDC8D818F3F11F060E0DE
:10111000E8DC6F8564FD19C063E0CE01E1DD0BE41E
:1011200016E4C8010197F1F763E0CE01D9DDC801EB
:101130000197F1F763E0CE01D3DD83E592E00197FB
:10114000F1F762E0CE01CCDD13C06062CE0145DE76
:101150008BE496E40197F1F76F856062CE013DDE86
:1011600083E592E00197F1F76F856062CE0135DE8D
:101170006F856062CE0131DE84E0888B6CE0CE0149
:101180002CDECE012CDE82E0898B66E0CE01DF9181
:10119000CF911F910F91FF90EF901FCEFC01A0897E
:1011A000B18982E08C93A485B5851C92A685B7850C
:1011B0008FEC8C93108EA489B58986E08C93A289DC
:1011C000B3898C9180618C93A289B3898C9188605A
:1011D0008C93A289B3898C9180688C930288F3895F
:1011E000E02D80818F7D80830895843008F083E036
:1011F00090916705891710F08FEF890FE82FF0E0C5
:10120000EC5AFA4F6489606884E595E0E6CDCF93A7
:10121000DF93EC0140E050E06DEE72E00BDBCE01BD
:10122000DF91CF9108958F929F92AF92BF92CF920C
:10123000DF92EF92FF92E5DC4B015C0184EFC82E58
:10124000DD24D394E12CF12CDCDCDC01CB0188190A
:101250009909AA09BB09883E9340A105B10558F038
:1012600021E0C21AD108E108F10888EE880E83E077
:10127000981EA11CB11CC114D104E104F10421F792
:10128000FF90EF90DF90CF90BF90AF909F908F90A6
:1012900008952091E3039091E203213208F04AC0BF
:1012A0008091BF038111FCCF32E03093BF0331E066
:1012B0003093BE033FEF3093BD031092BC032093E5
:1012C000BB03A2ECB3E04BE953E0FA013E2F341B21
:1012D000321718F43D913193F9CF10929A0320916F
:1012E0009A03990F922B90939A03909199039130BE
:1012F00061F41092990390919A039093BB0090919E
:10130000BC0093FDF8CF95EC01C095EE9093BC0026
:101310009091BF039230E1F39091BD039F3F79F02C
:101320008091BD03803241F08091BD03803331F064
:1013300084E005C081E003C082E001C083E0109238
:10134000C1031092E3031092C0030895CF93DF937B
:10135000EC0185E0C633D807D1F060913605709175
:1013600037056115710539F040913A0550913B05FB
:10137000CE0160DA0CC088819981009711F00E943B
:101380004D12198218821D821C821B821A82CE0184
:10139000DF91CF910895CF93DF93EC0180913605D3
:1013A000909137050097C9F06881798161157105C1
:1013B00091F040913805509139052C813D814217BB
:1013C000530748F00E94DF138C819D8190933B0569
:1013D00080933A0518C00E944D128881998190939C
:1013E0003705809336058A819B81909339058093D8
:1013F00038058C819D8190933B0580933A05198235
:1014000018821B821A821D821C82DF91CF9108955F
:101410008F929F92AF92BF92CF92DF92EF92FF9204
:101420000F931F93CF93DF93EC016A017B019A0125
:10143000AB01C701B6016ED7882319F062E373E0F0
:1014400024C046015701E894B7F82FEF3FEF4FE76C
:101450005FE7C501B4015ED781110CC02FEF3FEFEC
:101460004FE75FE7C501B4018BD518161CF466E39E
:1014700073E00BC02FEF3FEF4FE75FE4C701B6010A
:1014800045D7181684F46AE373E0CE01DF91CF915B
:101490001F910F91FF90EF90DF90CF90BF90AF9092
:1014A0009F908F901CCA2FEF3FEF4FE75FECC70173
:1014B000B60166D587FDE7CF20E030E0A901C7017E
:1014C000B6015ED587FF0EC0E881F9810190F081F9
:1014D000E02D6DE2CE0119958C01F7FAF094F7F842
:1014E000F09402C000E010E02AE037ED43EA5BE34D
:1014F000C701B6017BD66B017C01DCD64B015C01D8
:1015000043D59B01AC01C701B6016FD66B017C01CD
:101510002AE0B501A401CE01F7D9080F191FE8810F
:10152000F9810190F081E02D6EE2CE011995080F4E
:10153000191F20E030E040E251E4C701B60185D533
:101540004B015C01B7D66B01E12CF12C2AE0B7010D
:10155000A601CE01D9D9080F191FC701B60114D5AC
:101560009B01AC01C501B40140D620E030E040E26F
:1015700051E46BD59FD6AB0160E070E02AE0CE016C
:10158000C3D9800F911FDF91CF911F910F91FF90D1
:10159000EF90DF90CF90BF90AF909F908F90089585
:1015A000CF93DF9300D000D0CDB7DEB7789484B569
:1015B000826084BD84B5816084BD85B5826085BD4F
:1015C00085B5816085BD80916E00816080936E00DD
:1015D00010928100809181008260809381008091CF
:1015E0008100816080938100809180008160809380
:1015F00080008091B10084608093B1008091B00040
:1016000081608093B000809191008260809391000E
:101610008091910081608093910080919000816021
:10162000809390008091A10082608093A1008091BE
:10163000A10081608093A1008091A00081608093CF
:10164000A00080912101826080932101809121017D
:10165000816080932101809120018160809320012D
:1016600080917A00846080937A0080917A00826011
:1016700080937A0080917A00816080937A008091D3
:101680007A00806880937A001092C10081E894E02B
:1016900085DD84EE93E082DD62E084E595E0F6DCB2
:1016A00010928F0310928E031092C1031092E303E5
:1016B0001092BF0381E08093BE031092990361E012
:1016C00084E10FDA61E085E10CDA8091B9008E7F68
:1016D0008093B9008091B9008D7F8093B90088E430
:1016E0008093B80085E48093BC0066E372E084E5F3
:1016F00095E052D981E079DD67E472E084E595E018
:101700004BD90CE284EE93E00E940B02892B09F482
:1017100039C084EE93E00E94E9018C3279F569E5E5
:1017200072E08EE495E00BD8882321F164EE73E03B
:10173000CE010196BDD8CE0101962DDECE010196D7
:101740001DD880E395E002DE66E672E081E894E071
:1017500023D9409134055091350560913005709141
:10176000310581E894E00E94960162E772E081E829
:1017700094E012D98EE495E04ADD04C0682F8EE42F
:1017800095E028D881E894E00E940B02892B09F4A7
:10179000A9C181E894E00E94E9018C3209F09DC161
:1017A00068E772E08EE495E00E949F03882309F4C5
:1017B00068C061E874E0CE0101967AD8CE01019646
:1017C000EADDCE0101960E94BE0367E872E086E37F
:1017D00095E00E949F038823E1F084E595E0FFDA1D
:1017E00080E003DD69E872E084E595E0D5D881E02A
:1017F000FCDC61E972E084E595E0CED860E984E53F
:1018000095E0E6DA60E984E595E0E2DA86E395E0E2
:10181000FEDC63EC72E086E395E00E949F03882380
:10182000A1F084E595E0DBDA80E0DFDC6FE972E0CF
:1018300084E595E0B1D881E0D8DC6BEA72E084E51C
:1018400095E0AAD886E395E0E2DC69EB72E086E3F6
:1018500095E00E949F038823A1F084E595E0BFDA1C
:1018600080E0C3DC66E372E084E595E095D881E032
:10187000BCDC67E472E084E595E08ED886E395E011
:10188000C6DC6BEB72E08EE495E00E949F03882338
:1018900009F4A5C061E874E0CE01019609D8CE0133
:1018A000019679DDCE0101960E94BE0388E495E0A1
:1018B0004DDD8091480590914905009711F0D7D1F1
:1018C00003C060E070E0CB016093950370939603D2
:1018D000809397039093980365EC72E081E894E01D
:1018E0005BD884E595E07BDA80E07FDC6AED72E02E
:1018F00084E595E051D881E078DC409195035091E2
:101900009603609197037091980384E595E080DDDC
:1019100060E984E595E05CDA64EF84E595E058DA07
:1019200040919503509196036091970370919803AD
:1019300081E894E06DDD62E772E081E894E00E9466
:101940006F046BEE72E081E894E00E946F0486E31E
:1019500095E05DDC68DC8090950390909603A09004
:101960009703B0909803C501B401A4D46B017C0126
:1019700060939203D092910380E090E005D39B01A5
:10198000AC01C501B40131D420E030E048EC52E4B0
:101990005CD390D4162F6093930370939403609359
:1019A000900381E08093C0030093E2031092C1038F
:1019B0001092E30363E08EE195E00E946B036D2DCE
:1019C0008EE195E00E946B036C2D8EE195E00E9404
:1019D0006B03612F8EE195E00E946B035ADC6EEE83
:1019E00072E08EE495E00E949F03882309F471C0A1
:1019F00061E874E0CE0101960E945804CE01019680
:101A0000CADCCE0101960E94BE0382E495E09EDC12
:101A100063EC72E082E495E00E949F038823F9F072
:101A200086E395E0F4DB81E08093C0030093E2035A
:101A30001092C1031092E30365E08EE195E00E94ED
:101A40006B0327DCF0DB66EF72E081E894E00E9434
:101A50006F046BEE72E081E894E00E946F0467E827
:101A600072E082E495E00E949F03882399F084E568
:101A700095E0B5D980E0B9DB68E073E084E595E0F6
:101A80000E94CC0481E0B1DB68E173E084E595E07D
:101A90000E94CC0469EB72E082E495E00E949F030F
:101AA0008823B9F084E595E09AD980E09EDB68E070
:101AB00073E084E595E00E94CC0481E096DB66E269
:101AC00073E084E595E00E94CC0486E395E09FDB1B
:101AD000AADB8EE495E09BDB05C0682F8EE495E0E1
:101AE0000E94EA030E94B1020DCE8AE295E00E94B4
:101AF000BE0380E395E00E94BE0386E395E00E946A
:101B0000BE038CE395E00E94BE0382E495E00E9450
:101B1000BE0388E495E00E94BE038EE495E00C9439
:101B2000BE03E4EEF3E01382128288EE93E0A0E0BD
:101B3000B0E084839583A683B7832AE032E03183C3
:101B400020834DEC50E0558744874CEC50E057879C
:101B5000468748EC50E0518B408B49EC50E0538B6A
:101B6000428B4AEC50E0558B448B4EEC50E0578B47
:101B7000468B118E128E138E148EE1E8F4E01382E0
:101B8000128284839583A683B7833183208325ECD7
:101B900030E03587248724EC30E03787268720EC37
:101BA00030E0318B208B21EC30E0338B228B22EC28
:101BB00030E0358B248B26EC30E0378B268B118E72
:101BC000128E138E148EEEE1F5E01382128284835E
:101BD0009583A683B7838CE192E091838083E4E5CB
:101BE000F5E0138212828EE292E09183808389E293
:101BF00084838FEF85838BE2868383E2878385E20C
:101C0000808780E3818782E3828713861486158626
:101C10001686178661E0CF0139DA6DEE72E08EE448
:101C200095E00E9444046DEE72E088E495E00E9425
:101C300044046DEE72E082E495E00E9444046DEE8F
:101C400072E08CE395E00E9444046DEE72E086E35E
:101C500095E00E9444046DEE72E080E395E00E94FE
:101C600044046DEE72E08AE295E00C944404662729
:101C7000772700C06F927F928F929F92AF92BF9210
:101C8000CF92DF92EF92FF920F931F93CF93DF9348
:101C9000EC017B016115710519F0DB018D939C93BB
:101CA0008E010F5F1F4F7880872D90E049D1892BDF
:101CB00011F0E801F5CFBDE27B1205C00F5F1F4FA9
:101CC0007980C1E008C0EBE27E1204C08E010E5F95
:101CD0001F4F7980C0E06801F1E0CF1AD10843E0DE
:101CE00050E060E171E0C60133D1892BE9F468016D
:101CF00022E0C20ED11C45E050E06BE071E0C6016D
:101D000027D1892B21F4680187E0C80ED11CE1148A
:101D1000F10419F0D701CD92DC92C111F9C060E055
:101D200070E080E89FE7FDC043E050E068E071E0CC
:101D3000C6010ED1892B51F4E114F10409F4EDC070
:101D40000E5F1F4FF70111830083E7C0680160E059
:101D500070E0CB0100E010E0F601D0EDD70DDA30F5
:101D600050F52C2F2260622E2C2F2870C2FF05C048
:101D7000211127C00F5F1F4F24C0222311F00150F3
:101D80001109A5E0B0E09B01AC0116D24B015C014A
:101D9000880C991CAA1CBB1CC501B4016D0F711DD8
:101DA000811D911D6839A9E97A078A07A9E19A0777
:101DB00040F0C66005C0DE3F51F4C3FD44C0C860BA
:101DC0006C2EBFEFCB1ADB0A7080C62DC5CF2D2F2E
:101DD0002F7D2531C1F540814D3211F4C06106C01F
:101DE0004B3221F0319621E030E006C03296D60128
:101DF00011964C9122E030E0A0EDA40FAA3018F02B
:101E0000E21BF30B20C040E050E04038BCE05B0731
:101E10005CF49A01220F331F220F331F420F531F0E
:101E2000440F551F4A0F511D3196DF0111972C9118
:101E3000A0EDA20FAA3048F3C4FF03C0519541950D
:101E40005109040F151FC1FF07C0E114F10421F06F
:101E50003197D701ED93FC9397D0C370C33019F03D
:101E60006B017C0106C06B017C01F7FAF094F7F876
:101E7000F09420E030E0A901C701B60181D08823A9
:101E800009F443C017FF06C0119501951109C7E277
:101E9000D1E002C0CFE3D1E05E01B8E1AB1AB108F6
:101EA0004601BE2DAF2D90E2E92EF12C0E151F0537
:101EB0007CF0FE012591359145915491B4018B2F11
:101EC0009A2FC3D04B01B82FA92F0E191F09EECF9F
:101ED0002497F594E794CA15DB0541F76401EB2ECE
:101EE000FA2E8E2D880F8F2D881F8F3F41F020E016
:101EF00030E0A901C701B60143D0811106C082E2DA
:101F000090E090936D0580936C05C701B60109C000
:101F100060E070E080E89FEF04C060E070E080EC7B
:101F20009FE7DF91CF911F910F91FF90EF90DF908E
:101F3000CF90BF90AF909F908F907F906F900895BB
:101F40009111E6C0803219F089508550D0F708957C
:101F5000FB01DC014150504088F08D9181341CF030
:101F60008B350CF4805E659161341CF06B350CF49C
:101F7000605E861B611171F3990B0895881BFCCF7D
:101F800040D008F481E00895E89409C097FB3EF43E
:101F900090958095709561957F4F8F4F9F4F9923B6
:101FA000A9F0F92F96E9BB279395F6958795779534
:101FB0006795B795F111F8CFFAF4BB0F11F460FFF4
:101FC0001BC06F5F7F4F8F4F9F4F16C0882311F04C
:101FD00096E911C0772321F09EE8872F762F05C060
:101FE000662371F096E8862F70E060E02AF09A95FB
:101FF000660F771F881FDAF7880F9695879597F9F0
:102000000895990F0008550FAA0BE0E8FEEF161689
:102010001706E807F907C0F012161306E407F507DC
:1020200098F0621B730B840B950B39F40A2661F050
:10203000232B242B252B21F408950A2609F4A140F3
:10204000A6958FEF811D811D08950BD07BC06CD0AC
:1020500028F071D018F0952309F05DC062C01124FA
:10206000A5C081D0A0F3959FD1F3950F50E0551FE7
:10207000629FF001729FBB27F00DB11D639FAA27DD
:10208000F00DB11DAA1F649F6627B00DA11D661F2C
:10209000829F2227B00DA11D621F739FB00DA11D4D
:1020A000621F839FA00D611D221F749F3327A00D07
:1020B000611D231F849F600D211D822F762F6A2FA3
:1020C00011249F5750408AF0E1F088234AF0EE0F28
:1020D000FF1FBB1F661F771F881F91505040A9F735
:1020E0009E3F510570F017C061C05F3FECF3983E12
:1020F000DCF3869577956795B795F795E7959F5F9C
:10210000C1F7FE2B880F911D9695879597F9089535
:1021100099278827089597F99F6780E870E060E025
:1021200008959FEF80EC089500240A941616170670
:1021300018060906089500240A94121613061406B8
:1021400005060895092E0394000C11F4882352F01B
:10215000BB0F40F4BF2B11F460FF04C06F5F7F4FD3
:102160008F4F9F4F089557FD9058440F551F59F0BA
:102170005F3F71F04795880F97FB991F61F09F3F74
:1021800079F087950895121613061406551FF2CF9D
:102190004695F1DF08C0161617061806991FF1CFED
:1021A00086957105610508940895E894BB27662714
:1021B0007727CB0197F9089509D0A59F900DB49F7B
:1021C000900DA49F800D911D11240895A29FB00130
:1021D000B39FC001A39F700D811D1124911DB29F5B
:1021E000700D811D1124911D08955058BB27AA27F9
:1021F0000ED0A8CF99DF30F09EDF20F031F49F3F62
:1022000011F41EF48ECF0EF4E095E7FB84CFE92F96
:10221000AADF80F3BA17620773078407950718F0DF
:1022200071F49EF5C2CF0EF4E0950B2EBA2FA02DBF
:102230000B01B90190010C01CA01A0011124FF2773
:10224000591B99F0593F50F4503E68F11A16F0406E
:10225000A22F232F342F4427585FF3CF469537956D
:102260002795A795F0405395C9F77EF41F16BA0B32
:10227000620B730B840BBAF09150A1F0FF0FBB1FE0
:10228000661F771F881FC2F70EC0BA0F621F731F29
:10229000841F48F4879577956795B795F7959E3F86
:1022A00008F0B3CF9395880F08F09927EE0F979514
:1022B0008795089560DF88F09F5790F0B92F992790
:1022C000B751A0F0D1F0660F771F881F991F1AF041
:1022D000BA95C9F712C0B13081F067DFB1E0089557
:1022E00064CF672F782F8827B85F39F0B93FCCF3D8
:1022F000869577956795B395D9F73EF49095809537
:10230000709561957F4F8F4F9F4F08957ADE08F447
:102310008FEF089576DE880B990B0895A1E21A2EAF
:10232000AA1BBB1BFD010DC0AA1FBB1FEE1FFF1F79
:10233000A217B307E407F50720F0A21BB30BE40BC9
:10234000F50B661F771F881F991F1A9469F7609510
:102350007095809590959B01AC01BD01CF010895CA
:10236000EE0FFF1F881F8BBF0790F691E02D199489
:10237000CF93DF938230910510F482E090E0E091FA
:102380007005F091710520E030E0C0E0D0E03097BA
:1023900011F14081518148175907C0F0481759077A
:1023A00061F482819381209719F09B838A832BC0EB
:1023B000909371058093700526C02115310519F0A1
:1023C0004217530718F49A01BE01DF01EF010280A2
:1023D000F381E02DDCCF2115310509F1281B390BE4
:1023E0002430310590F412968D919C9113976115CC
:1023F000710521F0FB019383828304C090937105E2
:1024000080937005FD01329644C0FD01E20FF31F79
:1024100081939193225031092D933C933AC020919E
:102420006E0530916F05232B41F42091020230910B
:10243000030230936F0520936E05209100023091C6
:1024400001022115310541F42DB73EB74091040238
:1024500050910502241B350BE0916E05F0916F053C
:10246000E217F307A0F42E1B3F0B2817390778F06B
:10247000AC014E5F5F4F2417350748F04E0F5F1FCA
:1024800050936F0540936E058193919302C0E0E0F5
:10249000F0E0CF01DF91CF9108950F931F93CF9379
:1024A000DF93009709F48CC0FC01329713821282EB
:1024B00000917005109171050115110581F42081BD
:1024C0003181820F931F20916E0530916F0528177F
:1024D000390779F5F0936F05E0936E0571C0D80167
:1024E00040E050E0AE17BF0750F412962D913C919A
:1024F0001397AD012115310509F1D901F3CF9D01E4
:10250000DA013383228360817181860F971F8217DE
:10251000930769F4EC0128813981260F371F2E5F5C
:102520003F4F318320838A819B8193838283452B14
:1025300029F4F0937105E093700542C01396FC9363
:10254000EE931297ED01499159919E01240F351F89
:10255000E217F30771F480819181840F951F029631
:1025600011969C938E938281938113969C938E9364
:102570001297E0E0F0E0D80112968D919C911397AC
:10258000009719F0F8018C01F6CF8D919C9198017C
:102590002E5F3F4F820F931F20916E0530916F0584
:1025A0002817390769F4309729F4109271051092B1
:1025B000700502C01382128210936F0500936E059E
:1025C000DF91CF911F910F9108956F927F928F921B
:1025D0009F92AF92BF92CF92DF92EF92FF920F93B2
:1025E0001F93CF93DF93EC01009781F4CB01DF9130
:1025F000CF911F910F91FF90EF90DF90CF90BF9000
:10260000AF909F908F907F906F90B2CEFC01E60FBD
:10261000F71F9C0122503109E217F30708F4A8C004
:10262000D9010D911C91119706171707A8F00530D5
:10263000110508F49BC0C80104978617970708F492
:1026400095C002501109061B170B019311936D934E
:102650007C93CF0122DF8AC05B01A01AB10A4C0132
:10266000800E911EA0917005B091710540E050E080
:10267000E12CF12C109709F44AC0A815B905D1F541
:102680006D907C901197630182E0C80ED11CCA1432
:10269000DB0480F1A3014A195B096A0182E0C80EDC
:1026A000D11C1296BC9012971396AC91B5E0CB1644
:1026B000D10440F0B282A38351834083D9016D934A
:1026C0007C930AC00E5F1F4FC301800F911FF90159
:1026D00091838083EB2DFA2FE114F10431F0D701BF
:1026E0001396FC93EE93129741C0F0937105E0931B
:1026F00070053CC08D919C9111974817590708F4BB
:10270000AC017D0112960D90BC91A02DB3CF8091AC
:102710006E0590916F0588159905E1F446175707E6
:10272000C8F48091000290910102009741F48DB7A6
:102730009EB74091040250910502841B950BE81747
:10274000F907B0F4F0936F05E0936E05F90171831A
:1027500060830CC0CB010CDE7C01009749F0A8011E
:10276000BE011BD0CE0199DEC70104C0CE0102C05C
:1027700080E090E0DF91CF911F910F91FF90EF905B
:10278000DF90CF90BF90AF909F908F907F906F9091
:10279000089581E090E0F89419C0FB01DC0102C0CB
:1027A00001900D9241505040D8F70895FB01DC0193
:1027B0008D91019080190110D9F3990B0895FB01B7
:1027C000DC0101900D920020E1F7089511E0C6E2CE
:1027D000D1E000E005C0802FFE01C2DD2196011D81
:0E27E000C732D10780E00807B1F7F894FFCFA9
:1027EE00000072058000000000004A029601DA0126
:1027FE0090020B02E901FD01000000006B033C0397
:10280E009A03160334032503170300000000E8069D
:10281E0096019A03990353656C6563746F72204138
:10282E0075746F6D612D0074697A61646F206465D3
:10283E0020526573697374210076616C6F726573D3
:10284E004C69646F730056616C6F72206C69646FB3
:10285E003A00206F686D73007374617475735F61F5
:10286E00726475696E6F00300041726475696E6FC7
:10287E0000446573636F6E65637461646F2100431A
:10288E006F6E65637461646F2120004167756172BC
:10289E0064616E646F2E2E2E003200726563656267
:1028AE0065727631002D2D3E2056616C6F7220724E
:1028BE006563656269646F3A200056616C6F7220C1
:1028CE00646573656A61646F3A20000D0A006C6579
:1028DE006974757261004D616E64616E646F206320
:1028EE006F6D616E646F21004C6569747572612045
:1028FE0045787465726E61004465736162696C69D6
:10290E00746164612100486162696C69746164611B
:0E291E0021006E616E00696E66006F766600C5
:020000023000CC
:10E000000D9489F10D94B2F10D94B2F10D94B2F129
:10E010000D94B2F10D94B2F10D94B2F10D94B2F1F0
:10E020000D94B2F10D94B2F10D94B2F10D94B2F1E0
:10E030000D94B2F10D94B2F10D94B2F10D94B2F1D0
:10E040000D94B2F10D94B2F10D94B2F10D94B2F1C0
:10E050000D94B2F10D94B2F10D94B2F10D94B2F1B0
:10E060000D94B2F10D94B2F10D94B2F10D94B2F1A0
:10E070000D94B2F10D94B2F10D94B2F10D94B2F190
:10E080000D94B2F10D94B2F10D94B2F10D94B2F180
:10E090000D94B2F10D94B2F10D94B2F10D94B2F170
:10E0A0000D94B2F10D94B2F10D94B2F10D94B2F160
:10E0B0000D94B2F10D94B2F10D94B2F10D94B2F150
:10E0C0000D94B2F10D94B2F10D94B2F10D94B2F140
:10E0D0000D94B2F10D94B2F10D94B2F10D94B2F130
:10E0E0000D94B2F141546D656761323536300041AF
:10E0F000726475696E6F206578706C6F72657220DE
:10E1000073746B3530305632206279204D4C530099
:10E11000426F6F746C6F616465723E004875683F52
:10E1200000436F6D70696C6564206F6E203D200048
:10E130004350552054797065202020203D20005FF9
:10E140005F4156525F415243485F5F3D2000415658
:10E1500052204C696243205665723D20004743437C
:10E160002056657273696F6E203D20004350552024
:10E1700049442020202020203D20004C6F7720663D
:10E18000757365202020203D20004869676820665F
:10E190007573652020203D200045787420667573D6
:10E1A00065202020203D20004C6F636B2066757336
:10E1B000652020203D20004D617220203720323024
:10E1C000313300312E362E3800342E332E350056A2
:10E1D00023202020414444522020206F7020636F70
:10E1E00064652020202020696E73747275637469E1
:10E1F0006F6E2061646472202020496E74657272B3
:10E20000757074006E6F20766563746F7200726A49
:10E210006D702020006A6D70200057686174207056
:10E220006F72743A00506F7274206E6F7420737541
:10E2300070706F72746564004D7573742062652030
:10E2400061206C6574746572002000577269747483
:10E25000696E672045450052656164696E672045B7
:10E26000450045452065727220636E743D00504F35
:10E27000525400303D5A65726F2061646472003FF1
:10E280003D43505520737461747300403D454550C3
:10E29000524F4D207465737400423D426C696E6B41
:10E2A000204C454400453D44756D70204545505215
:10E2B0004F4D00463D44756D7020464C415348001B
:10E2C000483D48656C70004C3D4C69737420492F83
:10E2D0004F20506F72747300513D51756974005234
:10E2E0003D44756D702052414D00563D73686F7707
:10E2F00020696E7465727275707420566563746FF0
:10E30000727300593D506F727420626C696E6B00BD
:10E310002A0011241FBECFEFD1E2DEBFCDBF01E046
:10E320000CBF12E0A0E0B2E0EEE1FDEF03E00BBFB6
:10E3300002C007900D92A030B107D9F712E0A0E01B
:10E34000B2E001C01D92AE30B107E1F70F9460F367
:10E350000D948DFE01E20EBF0FEF0DBF11241FBE05
:10E360000D9460F30D9400F020E030E040ED57E0B4
:10E3700005C0FA013197F1F72F5F3F4F2817390792
:10E38000C0F308959C01260F311DC901A0E0B0E043
:10E390002F5F3F4FABBFFC018791882361F08093D3
:10E3A000C6008091C00086FFFCCF8091C0008064D1
:10E3B0008093C000EACF08958DE08093C6008091DD
:10E3C000C00086FFFCCF8091C00080648093C000B5
:10E3D0008AE08093C6008091C00086FFFCCF8091C8
:10E3E000C00080648093C00008950F94C2F10F9420
:10E3F000DCF10895FC019081992359F09093C600B7
:10E400008091C00086FFFCCF8091C0008064809323
:10E41000C0003196992379F70895282F982F929567
:10E420009F70892F805D8A3308F0895F8093C600D2
:10E430008091C00086FFFCCF8091C00080648093F3
:10E44000C000822F8F70982F905D9A3308F0995FEB
:10E450009093C6008091C00086FFFCCF8091C000E1
:10E4600080648093C00008959C01FB01853691056E
:10E470001CF46330710594F0C90164E670E00F94F8
:10E480002EFE605D7F4F6093C6008091C00086FFC6
:10E49000FCCF8091C00080648093C0002B30310598
:10E4A00014F43297B4F0C90164E670E00F942EFEC4
:10E4B0006AE070E00F942EFE605D7F4F6093C600AF
:10E4C0008091C00086FFFCCF8091C0008064809363
:10E4D000C000C9016AE070E00F942EFEC0968093E0
:10E4E000C6008091C00086FFFCCF8091C000806490
:10E4F0008093C00008951F93182F8EE692EE60E07F
:10E500000F94C2F11093C6008091C00086FFFCCF2B
:10E510008091C00080648093C0000F94DCF11F9153
:10E5200008952F923F924F925F926F927F928F92B7
:10E530009F92AF92BF92CF92DF92EF92FF920F9392
:10E540001F93DF93CF93CDB7DEB762970FB6F894E2
:10E55000DEBF0FBECDBF382E622ECA01DB015C01CB
:10E560006D01772420E2222E2E010894411C511CBB
:10E570008BC081E0A81680E0B80681E0C80680E084
:10E58000D80628F0C601AA27BB270F940DF2BB2797
:10E59000AD2D9C2D8B2D0F940DF28A2D0F940DF225
:10E5A0002092C6008091C00086FFFCCF8091C00001
:10E5B00080648093C0009DE29093C6008091C0006B
:10E5C00086FFFCCF8091C00080648093C0002092C1
:10E5D000C6008091C00086FFFCCF8091C00080649F
:10E5E0008093C00019828601750188249924A1E0D6
:10E5F0003A1651F03A1620F0B2E03B1661F409C029
:10E600000BBFF701779007C0C7010F9477FE782EF4
:10E6100002C0F7017080872D0F940DF22092C60082
:10E620008091C00086FFFCCF8091C0008064809301
:10E63000C000872D8052F401EF70F0708F3520F408
:10E64000E40DF51D708204C0E40DF51D8EE280839B
:10E650000894E11CF11C011D111D0894811C911CE2
:10E6600090E18916910409F0C2CF80E190E0A0E02A
:10E67000B0E0A80EB91ECA1EDB1E198AC2010F9493
:10E68000FAF10F94DCF16A94662009F072CF629679
:10E690000FB6F894DEBF0FBECDBFCF91DF911F91B3
:10E6A0000F91FF90EF90DF90CF90BF90AF909F9031
:10E6B0008F907F906F905F904F903F902F90089534
:10E6C0002F923F924F925F926F927F928F929F9282
:10E6D000AF92BF92CF92DF92EF92FF920F931F9370
:10E6E000DF93CF93CDB7DEB7CD53D1400FB6F894BB
:10E6F000DEBF0FBECDBF01E20EBF0FEF0DBF94B75F
:10E70000F894A89514BE80916000886180936000A1
:10E7100010926000789493FF05C0E0910002F091A0
:10E7200001021995279A2F9A8091C00082608093E8
:10E73000C00080E18093C40088E18093C1000000A4
:10E74000EE24FF24870144E0A42EB12CCC24DD2448
:10E7500024C0C5010197F1F70894E11CF11C011DCB
:10E76000111D21E2E2162EE4F20620E0020720E06D
:10E77000120718F031E0C32ED12CC801B70127ECE5
:10E780003BE140E050E00F9441FE611571058105C9
:10E79000910519F485B1805885B98091C00087FD35
:10E7A00003C0C114D104A9F2A6014F5F5F4FC25E3E
:10E7B000DE4F59834883CE51D140C25EDE4F8881FF
:10E7C0009981CE51D140019711F00D9410FEC05D9A
:10E7D000DE4F19821882C053D14060E0C15DDE4F28
:10E7E0001882CF52D14088249924C35DDE4F19820C
:10E7F0001882CD52D140C05EDE4F188219821A8233
:10E800001B82C052D140CE5CDE4F188219821A8220
:10E810001B82C253D140EE24FF2487010BBFF701B6
:10E8200007911691C45CDE4F19830883CC53D14005
:10E830000D940BFEC25EDE4F28813981CE51D1404E
:10E840002130310509F52091C600C25EDE4F1982E4
:10E850001882CE51D14022C02F5F3F4F4F4F5F4FA4
:10E86000213082E138078AE7480780E0580780F0C6
:10E87000C45CDE4FE881F981CC53D140EF5FFF4F9C
:10E8800019F0EE27FF27099420E030E040E050E047
:10E890008091C00087FFE0CF2091C600C35DDE4FAE
:10E8A00048815981CD52D1404F5F5F4FC35DDE4FEC
:10E8B00059834883CD52D140213209F063C64A3092
:10E8C000510508F05FC60894811C911C53E0851621
:10E8D000910409F059C600E010E018C081E280936D
:10E8E000C6008091C00086FFFCCF8091C00080648C
:10E8F0008093C0002F5F3F4F2931310579F70F9486
:10E90000DCF10F5F1F4F0530110519F020E030E0FA
:10E91000E5CF10920A0210920B0210920C02109294
:10E920000D02109206021092070210920802109235
:10E930000902109202021092030210920402109235
:10E9400005028FEE90EE60E00F94F5F180E191EE1C
:10E9500060E00F94C2F18091C00087FFFCCF9091DE
:10E96000C600903608F09F759032B8F09093C600BC
:10E970008091C00086FFFCCF8091C00080648093AE
:10E98000C000A0E2A093C6008091C00086FFFCCF2B
:10E990008091C00080648093C000983409F4D7C18E
:10E9A0009934B8F4923409F459C1933458F490333B
:10E9B00019F1903308F4E3C59F33A1F1903409F0C5
:10E9C000DEC5BDC0953409F470C1963409F0D7C5D1
:10E9D00098C1923509F42BC2933538F49C3409F46C
:10E9E000F5C1913509F0CBC518C2963509F445C279
:10E9F000993509F0C4C567C483E792EE62E00F94CD
:10EA0000F5F110920602109207021092080210927D
:10EA1000090210920A0210920B0210920C0210923C
:10EA20000D0213C18FE792EE62E00F94F5F18FEEC5
:10EA300090EE60E00F94F5F181E291EE60E00F94CA
:10EA4000C2F187EB91EE60E00F94F5F180E391EE77
:10EA500060E00F94C2F184EE90EE60E00F94F5F167
:10EA60008FE391EE60E00F94C2F186E090E061E008
:10EA700070E00F9434F20F94DCF18DE591EE60E0DC
:10EA80000F94C2F189EC91EE60E00F94F5F18EE401
:10EA900091EE60E00F94C2F183EC91EE60E00F9490
:10EAA000F5F18CE691EE60E00F94C2F18EE10F94E7
:10EAB0000DF288E90F940DF281E00F940DF20F949E
:10EAC000DCF18BE791EE60E00F94C2F119E0E0E039
:10EAD000F0E010935700E4918E2F0F940DF20F94F5
:10EAE000DCF18AE891EE60E00F94C2F1E3E0F0E03F
:10EAF00010935700E4918E2F0F940DF20F94DCF1D8
:10EB000089E991EE60E00F94C2F1E2E0F0E0109349
:10EB10005700E4918E2F0F940DF20F94DCF188EAE8
:10EB200091EE60E00F94C2F1E1E0F0E01093570045
:10EB30001491812F0F940DF20F94DCF107CF8BE825
:10EB400092EE62E00F94F5F18BE492EE60E00F94A8
:10EB5000F5F10F94DCF100E010E019C0C8016F2D51
:10EB60000F947FFEFF2031F489E492EE60E00F9471
:10EB7000C2F10BC0F092C6008091C00086FFFCCFAE
:10EB80008091C00080648093C0000F5F1F4FC80158
:10EB900081519F41A0E0B0E0ABBFFC01F790BAE229
:10EBA000FB1621F0E2E000301E07C1F60F94DCF105
:10EBB0000F94DCF187E592EE60E00F94F5F10F948D
:10EBC000DCF1CC24DD2400E010E01EC0C8010F946D
:10EBD00077FEF82E882331F489E492EE60E00F94FA
:10EBE000C2F10BC08093C6008091C00086FFFCCFAD
:10EBF0008091C00080648093C000FE1419F00894D6
:10EC0000C11CD11C0F5F1F4FC80181519F41A0E063
:10EC1000B0E0ABBFFC01E790FAE2EF1621F022E092
:10EC20000030120799F60F94DCF10F94DCF182E6C4
:10EC300092EE60E00F94C2F1C60161E070E00F94C3
:10EC400034F20F94DCF10F94DCF110920202109276
:10EC50000302109204021092050278CE89E992EE26
:10EC600062E00F94F5F1279A2F9A16C02F9880E052
:10EC700090E0E0EDF7E03197F1F7019684369105E9
:10EC8000C1F72F9A80E090E0E0EDF7E03197F1F7DF
:10EC9000019684369105C1F78091C00087FFE6CFC9
:10ECA0008091C00087FFFCCF64C485EA92EE62E0E9
:10ECB0000F94F5F140910202509103026091040219
:10ECC0007091050281E020E10F9491F2809102029F
:10ECD00090910302A0910402B091050280509F4FD1
:10ECE000AF4FBF4F8093020290930302A0930402A0
:10ECF000B093050280509041A040B04008F426CE69
:10ED0000A4CF83EB92EE62E00F94F5F140910602FE
:10ED100050910702609108027091090280E020E1A1
:10ED20000F9491F28091060290910702A09108023F
:10ED3000B091090280509F4FAF4FBF4F80930602A2
:10ED400090930702A0930802B0930902FFCD80ECD4
:10ED500092EE62E00F94F5F183E792EE60E00F949B
:10ED6000F5F18FE792EE60E00F94F5F18BE892EE0B
:10ED700060E00F94F5F189E992EE60E00F94F5F10F
:10ED800085EA92EE60E00F94F5F183EB92EE60E09D
:10ED90000F94F5F180EC92EE60E00F94F5F187ECC2
:10EDA00092EE60E00F94F5F188ED92EE60E00F9442
:10EDB000F5F18FED92EE60E00F94F5F18AEE92EEB0
:10EDC00060E00F94F5F183E093EEBDCD87EC92EE19
:10EDD00062E00F94F5F181E40F947BF282E40F94EA
:10EDE0007BF283E40F947BF284E40F947BF285E45E
:10EDF0000F947BF286E40F947BF287E40F947BF20E
:10EE000088E40F947BF28AE40F947BF28BE40F94F6
:10EE10007BF28CE40F947BF299CD88ED92EE62E068
:10EE20000F94F5F1772473948824992409C48FED05
:10EE300092EE62E00F94F5F140910A0250910B02BC
:10EE400060910C0270910D0282E020E10F9491F22A
:10EE500080910A0290910B02A0910C02B0910D02D8
:10EE600080509F4FAF4FBF4F80930A0290930B0289
:10EE7000A0930C02B0930D0269CD8AEE92EE62E08F
:10EE80000F94F5F184EE90EE60E00F94F5F18FECC5
:10EE900091EE60E00F94F5F1662477244301CC5D98
:10EEA000DE4F19821882C452D140D401C301B695F5
:10EEB000A79597958795CA5DDE4F88839983AA8326
:10EEC000BB83C652D140CC5DDE4FA881B981C4520C
:10EED000D1401196CC5DDE4FB983A883C452D14096
:10EEE000CD0162E070E00F9434F2B0E2B093C6005E
:10EEF0008091C00086FFFCCF8091C0008064809329
:10EF0000C000EDE2E093C6008091C00086FFFCCF18
:10EF10008091C00080648093C000F0E2F093C6004E
:10EF20008091C00086FFFCCF8091C00080648093F8
:10EF3000C000CA5DDE4FE880F9800A811B81C6529D
:10EF4000D140BB27A12F902F8F2D0F940DF2CA5DBA
:10EF5000DE4F8881C652D1400F940DF2B0E2FB2EF5
:10EF6000F092C6008091C00086FFFCCF8091C00067
:10EF700080648093C0000DE30093C6008091C000C0
:10EF800086FFFCCF8091C00080648093C00010E2B7
:10EF90001093C6008091C00086FFFCCF8091C00016
:10EFA00080648093C0008BBEF3012791C65DDE4F65
:10EFB0002883CA52D140A22EBB24CC24DD2408943D
:10EFC000611C711C811C911C8BBEF3018791282E42
:10EFD0003324442455240894611C711C811C911C09
:10EFE0008BBEF3013791C55DDE4F3883CB52D140E4
:10EFF0000894611C711C811C911C8BBEF30147910C
:10F00000C45DDE4F4883CC52D140ADEFEA2EAFEF66
:10F01000FA2EAFEF0A2FAFEF1A2F6E0C7F1C801E57
:10F02000911E142D032DF22CEE24EA0CFB1C0C1D5A
:10F030001D1D0F940DF220E22093C6008091C000A8
:10F0400086FFFCCF8091C00080648093C000C65DC5
:10F05000DE4F8881CA52D1400F940DF230E23093D6
:10F06000C6008091C00086FFFCCF8091C000806404
:10F070008093C000C45DDE4F8881CC52D1400F9494
:10F080000DF240E24093C6008091C00086FFFCCFA5
:10F090008091C00080648093C000C55DDE4F888190
:10F0A000CB52D1400F940DF250E25093C6008091A4
:10F0B000C00086FFFCCF8091C00080648093C000B8
:10F0C0008FEFE8168FEFF80680E0080780E018075A
:10F0D00031F484E092EE60E00F94C2F1DFC0D80119
:10F0E000C7018070907CA070B0708050904CA040A0
:10F0F000B040D1F52FEF3FE340E050E0E222F322B1
:10F1000004231523CA5DDE4FA880B980CA80DB8046
:10F11000C652D140AE0CBF1CC01ED11EAA0CBB1CD7
:10F12000CC1CDD1C8EE092EE60E00F94C2F1BB2798
:10F13000A12F902F8F2D0F940DF28E2D0F940DF285
:10F1400030E23093C6008091C00086FFFCCF8091F2
:10F15000C00080648093C0004EE34093C60080915D
:10F16000C00086FFFCCF87C08EE09EEFA0E0B0E03D
:10F17000E822F9220A231B239CE0E91694E9F90608
:10F1800090E0090790E0190709F088C0C45DDE4FE0
:10F19000A881CC52D140EA2EFF2400E010E0102FCD
:10F1A0000F2DFE2CEE24C55DDE4FB881CB52D14031
:10F1B000EB0EF11C011D111DD601C501817090706F
:10F1C000A070B070DC0199278827E80EF91E0A1F8D
:10F1D0001B1F20EF30E040E050E0A222B322C42207
:10F1E000D52241E1AA0CBB1CCC1CDD1C4A95D1F7F1
:10F1F000EA0CFB1C0C1D1D1D81E090E0A0E0B0E0BE
:10F20000282239224A225B2235E1220C331C441C7D
:10F21000551C3A95D1F7E20CF31C041D151D57013E
:10F220006801AA0CBB1CCC1CDD1C85E192EE60E0E1
:10F230000F94C2F1C801AA27BB270F940DF2BB2778
:10F24000A12F902F8F2D0F940DF28E2D0F940DF274
:10F2500090E29093C6008091C00086FFFCCF809121
:10F26000C00080648093C000AEE3A093C60080918C
:10F27000C00086FFFCCF8091C00080648093C000F6
:10F28000C601AA27BB270F940DF2BB27AD2D9C2DDD
:10F290008B2D0F940DF28A2D0F940DF20F94DCF14B
:10F2A000CC5DDE4FE881F981C452D140F99709F471
:10F2B0004DCBF4E0EF2EF12C012D112D6E0C7F1CA7
:10F2C000801E911EF2CD83E093EE62E00F94F5F183
:10F2D0008AE192EE60E00F94C2F18091C00087FF56
:10F2E000FCCF1091C6001F751093C6008091C0001E
:10F2F00086FFFCCF8091C00080648093C0000F9493
:10F30000DCF1812F81548A3108F036C1163409F4BA
:10F3100095C0173490F4133409F44EC0143430F40B
:10F320001134F1F0123409F01DC130C0143409F465
:10F3300059C0153409F016C16BC01A3409F4C4C0A1
:10F340001B3438F4173409F48FC0183409F00AC19B
:10F35000A1C01B3409F4D2C01C3409F003C1E8C0B9
:10F360008FEF81B90DC082B1809582B980E090E0C5
:10F37000E0EDF7E03197F1F70196883C9105C1F790
:10F380008091C00087FFEFCF12B8EFC08FEF84B934
:10F390000DC085B1809585B980E090E0E0EDF7E0A3
:10F3A0003197F1F70196883C9105C1F78091C00033
:10F3B00087FFEFCF15B8D9C08FEF87B90DC088B1DF
:10F3C000809588B980E090E0E0EDF7E03197F1F7C3
:10F3D0000196883C9105C1F78091C00087FFEFCF6F
:10F3E00018B8C3C08FEF8AB90DC08BB180958BB9A7
:10F3F00080E090E0E0EDF7E03197F1F70196883C8E
:10F400009105C1F78091C00087FFEFCF1BB8ADC059
:10F410008FEF8DB90DC08EB180958EB980E090E0F0
:10F42000E0EDF7E03197F1F70196883C9105C1F7DF
:10F430008091C00087FFEFCF1EB897C08FEF80BBD1
:10F440000DC081B3809581BB80E090E0E0EDF7E0F6
:10F450003197F1F70196883C9105C1F78091C00082
:10F4600087FFEFCF11BA81C08FEF83BB0DC084B38C
:10F47000809584BB80E090E0E0EDF7E03197F1F714
:10F480000196883C9105C1F78091C00087FFEFCFBE
:10F4900014BA6BC08FEF809301010FC080910201FD
:10F4A00080958093020180E090E0E0EDF7E03197F5
:10F4B000F1F70196883C9105C1F78091C00087FF64
:10F4C000EDCF1092020151C08FEF809304010FC065
:10F4D0008091050180958093050180E090E0E0ED4A
:10F4E000F7E03197F1F70196883C9105C1F78091DB
:10F4F000C00087FFEDCF1092050137C08FEF8093DA
:10F5000007010FC08091080180958093080180E079
:10F5100090E0E0EDF7E03197F1F70196883C910536
:10F52000C1F78091C00087FFEDCF109208011DC088
:10F530008FEF80930A010FC080910B01809580931B
:10F540000B0180E090E0E0EDF7E03197F1F70196F4
:10F55000883C9105C1F78091C00087FFEDCF1092E4
:10F560000B0103C085E292EEEEC98091C00087FFD7
:10F57000FCCF8091C600EAC988E392EEE4C98CE131
:10F5800091EEE1C988249924933011F1943028F444
:10F59000913089F09230B8F408C0953061F195301F
:10F5A000F0F0963009F048C043C02B3109F042C951
:10F5B00091E06BE13FC96227C15DDE4F2883CF52E6
:10F5C000D14092E037C9B22FA0E0622793E032C960
:10F5D000822F90E0A82BB92B622794E02BC92E3004
:10F5E00009F039C3622795E0C05DDE4F19821882A9
:10F5F000C053D1401FC9E1E0F0E0EC0FFD1FC05D3A
:10F60000DE4F08811981C053D140E00FF11F2083E4
:10F610000F5F1F4FC05DDE4F19830883C053D14079
:10F6200062270A171B0709F005C9D80196E002C92D
:10F63000261709F010C303C0973009F0FBC87724E0
:10F640009981933109F412C19431C8F4963009F4C8
:10F65000D8C0973050F4923009F406C1933009F4C1
:10F660006DC0913009F059C253C0913109F477C08F
:10F67000923108F0BBC0903109F04FC2F5C098310B
:10F6800009F487C0993150F4953109F4EFC09531F0
:10F6900008F4C6C1963109F040C2C2C19A3109F4DA
:10F6A0006CC09A3108F491C09B3109F45BC09D3164
:10F6B00009F033C29D81903359F48F81882311F46E
:10F6C0009EE11CC0813011F091E018C098E916C08D
:10F6D000892F807591F0903539F4E0E0F0E089E011
:10F6E0008093570094910AC0983539F4E3E0F0E034
:10F6F00089E080935700949101C090E01A821B82A8
:10F700008D818C831D829E831F8227E030E009C299
:10F710001A8288E08B8381E48C8386E58D8382E581
:10F720008E8389E48F8383E5888780E589878FE5E9
:10F730008A8782E38B872BE030E0F3C18A818139AD
:10F7400041F0823941F0803911F48FE005C080E04A
:10F7500003C082E001C08AE01A828B8344C0772410
:10F76000739482C08D81882311F48EE12CC0813086
:10F7700011F081E028C088E926C01A82E1E0F0E0BB
:10F7800089E08093570084918B831C8224E030E0D1
:10F79000C8C18B81803589F48C81883039F4E2E0EE
:10F7A000F0E089E08093570084910DC0E0E0F0E044
:10F7B00089E080935700849106C0E3E0F0E089E09F
:10F7C0008093570084911A82DFCF8D81836C99E0FA
:10F7D000E1E0F0E0082E90935700E89507B600FCB2
:10F7E000FDCF1A821B8223E030E09BC180EC8A832C
:10F7F000CE5CDE4F188219821A821B82C253D1401E
:10F800008EC18A8190E0A0E0B0E0582F44273327D2
:10F8100022278B8190E0A0E0B0E0DC0199278827C7
:10F82000282B392B4A2B5B2B8D8190E0A0E0B0E098
:10F83000282B392B4A2B5B2B8C8190E0A0E0B0E089
:10F84000BA2FA92F982F8827282B392B4A2B5B2BCF
:10F85000220F331F441F551FC05EDE4F288339839C
:10F860004A835B83C052D1401A8259C13A81C95C34
:10F87000DE4F3883C753D140CA5CDE4F1882C6536F
:10F88000D1408B81C82EDD24CA5CDE4F488159816E
:10F89000C653D140C42AD52A933109F082C0CE5C28
:10F8A000DE4F88819981AA81BB81C253D1408050AB
:10F8B000904CA340B04030F583E0CE5CDE4FE88052
:10F8C000F9800A811B81C253D140F70100935B008C
:10F8D00080935700E89507B600FCFDCFCE5CDE4F65
:10F8E000088119812A813B81C253D14000501F4FAA
:10F8F0002F4F3F4FCE5CDE4F088319832A833B8313
:10F90000C253D140C05EDE4F488159816A817B81FC
:10F91000C052D140DE011B9631E08C9111962C91A2
:10F9200011971296C75CDE4F2883C953D140C85C3B
:10F93000DE4F1882C853D14090E0C85CDE4FE881AA
:10F94000F981C853D1408E2B9F2B0C01FA01609393
:10F950005B0030935700E89511244E5F5F4F6F4F67
:10F960007F4F0EEFE02E0FEFF02ECE0CDF1CC114F8
:10F97000D10499F685E0C05EDE4F088119812A81A5
:10F980003B81C052D140F80120935B008093570027
:10F99000E89507B600FCFDCF81E180935700E8951C
:10F9A00035C0C05EDE4F88819981AA81BB81C0527B
:10F9B000D140B695A795979587957C018601ABE0D8
:10F9C000AA2EB12CAC0EBD1E0BC0D5016D915D01F0
:10F9D000C7010F947FFE0894E11CF11C01501040F8
:10F9E0000115110591F7A60160E070E0440F551F65
:10F9F000661F771FC05EDE4FE880F9800A811B8199
:10FA0000C052D1404E0D5F1D601F711F1A82C05E33
:10FA1000DE4F488359836A837B83C052D1407FC0C5
:10FA2000FA80C55CDE4FF882CB53D140C65CDE4F16
:10FA30001882CA53D1408B81C82EDD24C65CDE4FAC
:10FA400008811981CA53D140C02AD12A1A828981DA
:10FA5000BE016D5F7F4F843121F59601C05EDE4FA0
:10FA6000E880F9800A811B81C052D1400BBFF701A9
:10FA700087919691DB018C9311969C936E5F7F4FDB
:10FA8000D801C7010296A11DB11DC05EDE4F88835B
:10FA90009983AA83BB83C052D14022503040F1F6F3
:10FAA00036C0C05EDE4F288139814A815B81C052F9
:10FAB000D1400894C108D108760100E010E0089414
:10FAC000C11CD11C0894E11CF11C011D111DE20E8A
:10FAD000F31E041F151F21BDBB27A52F942F832FB5
:10FAE00082BD2F5F3F4F4F4F5F4FF89A80B5DB01CC
:10FAF0008D93BD012E153F054007510761F7C05E8C
:10FB0000DE4F288339834A835B83C052D1409601FC
:10FB10002D5F3F4FFB01108204C080EC8A8322E0FE
:10FB200030E08BE18093C6008091C00086FFFCCF5F
:10FB30008091C00080648093C000C15DDE4FF88179
:10FB4000CF52D140F093C6008091C00086FFFCCF19
:10FB50008091C00080648093C000432F3093C60022
:10FB60008091C00086FFFCCF8091C00080648093AC
:10FB7000C000922F2093C6008091C00086FFFCCF6A
:10FB80008091C00080648093C0008EE08093C600A6
:10FB90008091C00086FFFCCF8091C000806480937C
:10FBA000C00065E1C15DDE4FE880CF52D1406E25D7
:10FBB00069276427FE01319610C090819093C6009A
:10FBC0008091C00086FFFCCF31968091C000806498
:10FBD0008093C0006927215030402115310569F715
:10FBE0006093C6008091C00086FFFCCF8091C0006A
:10FBF00080648093C00085B1805885B9772081F4F6
:10FC0000C15DDE4F0881CF52D1400F5FC15DDE4F35
:10FC10000883CF52D14090E0A0E0B0E00D941AF4F8
:10FC200027982F9880E090E020ED37E0F901319798
:10FC3000F1F7019684369105C9F700008091C00064
:10FC40008D7F8093C00081E180935700E895EE2777
:10FC5000FF270994FFCF90E00D941AF497FB092E2B
:10FC600007260AD077FD04D02ED006D000201AF443
:10FC7000709561957F4F0895F6F7909581959F4F08
:10FC80000895A1E21A2EAA1BBB1BFD010DC0AA1FDD
:10FC9000BB1FEE1FFF1FA217B307E407F50720F0F5
:10FCA000A21BB30BE40BF50B661F771F881F991F70
:10FCB0001A9469F760957095809590959B01AC01B9
:10FCC000BD01CF010895AA1BBB1B51E107C0AA1FAC
:10FCD000BB1FA617B70710F0A61BB70B881F991FED
:10FCE0005A95A9F780959095BC01CD010895F99991
:10FCF000FECF92BD81BDF89A992780B50895262F31
:10FD0000F999FECF1FBA92BD81BD20BD0FB6F89400
:0EFD1000FA9AF99A0FBE01960895F894FFCF63
:040000033000E000E9
:00000001FF
