:1000000026C1000055C1000053C1000051C10000CD
:100010004FC100004DC100004BC1000049C10000AC
:1000200047C1000045C1000043C1000041C10000BC
:100030003FC100003DC100003BC1000039C10000CC
:1000400037C1000035C1000033C1000031C10000DC
:100050002FC100002DC100002BC10000F7C500001A
:1000600027C1000015C50000EAC4000021C100003E
:100070001FC100001DC100001BC1000019C100000C
:1000800017C1000015C1000013C1000011C100001C
:10009000ADC4000082C400000BC10000A7C6000070
:1000A00007C1000005C1000003C1000001C100003C
:1000B000FFC00000FDC00000FBC00000F9C0000050
:1000C000F7C00000F5C00000F3C00000F1C0000060
:1000D000EFC00000EDC00000EBC00000E9C0000070
:1000E000E7C00000A005A305920596059A05DA056C
:1000F000A705AB05B105B505B905BF05C305C7051E
:10010000DA05CD05D105D5054E414E494E49545924
:10011000494E46CDCCCC3D0AD7233C17B7D13877D2
:10012000CC2B329595E6241FB14F0A0000204100E8
:1001300000C84200401C4620BCBE4CCA1B0E5AAE32
:10014000C59D7400000A0B02090C0D0E080703047C
:10015000010000000000000000000000000000009E
:10016000000000000000000000000000000000127D
:10017000111000000000000000000000000000005E
:100180000000000000000000000000220025002800
:10019000002B002E00310034000201000005010890
:1001A000010B0100002100240027002A002D00304F
:1001B00000330001010000040107010A01050505E3
:1001C00005070508080808020202020A0A080804CE
:1001D00004040401010101010101010303030303FC
:1001E000030303040707070C0C0C0C0C0C0C0C028B
:1001F00002020206060606060606060B0B0B0B0B92
:100200000B0B0B010210202008081020401020408A
:1002100080020102010804020101020408102040CA
:1002200080804020100804020180040201804020E8
:100230001008040201080402010102040810204011
:1002400080010204081020408000910D750D1124DA
:100250001FBECFEFD1E2DEBFCDBF00E00CBF25E077
:10026000AEE3B3E001C01D92A237B207E1F713E09D
:10027000A0E0B2E0EEEEF7E200E00BBF02C00790B4
:100280000D92AE33B107D9F711E0C6E2D1E000E03C
:1002900006C021970109802FFE010E94B011C532CE
:1002A000D10780E00807A9F70E94D00A0C94E61352
:1002B000A7CE0895CF93DF93EC012FB7F8948091E8
:1002C0008A0390918B03A0918C03B0918D032FBF73
:1002D00088879987AA87BB87E881F9810284F3859B
:1002E000E02DCE01199597FF1EC02FB7F89480918D
:1002F0008A0390918B03A0918C03B0918D032FBF43
:10030000488559856A857B85841B950BA60BB70BA1
:100310004C815D816E817F8184179507A607B707A1
:10032000D8F28FEF9FEFDF91CF910895CF92DF92B8
:10033000EF92FF920F931F93CF93DF936C017A019B
:100340008B01C0E0D0E0CE15DF0589F0D8016D91BA
:100350008D01D601ED91FC910190F081E02DC60157
:100360001995892B11F47E0102C02196ECCFC701AB
:10037000DF91CF911F910F91FF90EF90DF90CF9081
:100380000895FC01A089B1898C91A689B78982FD65
:100390000FC09C91818D8F5F8F73228D821749F0E2
:1003A000218DDF01A20FB11D5D969C93818F089571
:1003B0008C910895FC01538D448D252F30E0842FBE
:1003C00090E0821B930B541710F0CF96089501977D
:1003D0000895FC01918D828D981761F0828DDF0167
:1003E000A80FB11D5D968C91928D9F5F9F73928F28
:1003F00090E008958FEF9FEF0895FC01918D828D1D
:10040000981731F0828DE80FF11D858D90E00895E9
:100410008FEF9FEF0895FC01918D228D892F90E041
:10042000805C9F4F821B91098F739927089584EEFA
:1004300093E0F1DF21E0892B09F420E0822F089579
:1004400081E894E0E8DF21E0892B09F420E0822FA5
:100450000895FC01848DDF01A80FB11DA35ABF4F81
:100460002C91848D90E001968F739927848FA689B3
:10047000B7892C93A089B1898C9180648C93938DDA
:10048000848D981306C00288F389E02D80818F7DCA
:1004900080830895EF92FF920F931F93CF93DF9382
:1004A000EC0181E0888F9B8D8C8D981305C0E889C5
:1004B000F989808185FD23C0F62E0B8D10E00F5F3A
:1004C0001F4F0F731127E02E8C8DE8120BC00FB653
:1004D00007FCFACFE889F989808185FFF5CFCE0145
:1004E000B8DFF2CF8B8DFE01E80FF11DE35AFF4F0D
:1004F000F0820B8FEA89FB898081806207C0EE89D8
:10050000FF896083E889F98980818064808381E044
:1005100090E0DF91CF911F910F91FF90EF900895A0
:10052000CF93DF93EC01888D8823C1F0EA89FB89A2
:10053000808185FD05C0A889B9898C9186FD0EC092
:100540000FB607FCF5CF808185FFF2CFA889B98966
:100550008C9185FFEDCFCE017CDFE8CFDF91CF918D
:10056000089580E090E0892B19F06ADF811120C0A6
:1005700080E090E0892B19F05ADF81111CC080E0E7
:1005800090E0892B41F080E090E0892B21F00E94DF
:100590000000811113C080E090E0892BA1F080E081
:1005A00090E0892B81F00E94000081110AC008951B
:1005B0000E940000DDCF0E940000E1CF0E940000F9
:1005C000EACF0C940000089585ED8093BC008091E3
:1005D000BC0084FDFCCF1092BF03089540916003DE
:1005E000262F30E0240F311D21323105DCF420911B
:1005F000BF032430C9F4FC0180E090E0861758F472
:10060000309160032191DC01A25CBC4FA30FB11DAE
:100610002C930196F3CF80916003680F6093600381
:1006200080E0089581E0089582E00895089581E0D2
:1006300090E030918F0320918E03321710F480E008
:1006400090E0919581959109089580918F03909103
:100650008E03891730F48F5F80938F0380E090E0E2
:1006600008958FEF9FEF089580918E0390E0209181
:100670008F03821B91090895CF92DF92EF92FF9230
:100680000F931F93CF93DF937C01262F972F8A011F
:100690008091C003882391F0C62FD72F6E01C40E1E
:1006A000D51ECC15DD0569F06991D701ED91FC915E
:1006B0000190F081E02DC7011995F3CF642F822FAF
:1006C0008DDFC801DF91CF911F910F91FF90EF90C7
:1006D000DF90CF900895CF93DF931F92CDB7DEB711
:1006E00069832091C0032223D1F02091E3032032BB
:1006F00040F021E030E0FC013383228380E090E091
:1007000014C08091C103E82FF0E0EE53FC4F9981B3
:1007100090838F5F8093C1038093E30304C061E003
:10072000CE0101965BDF81E090E00F90DF91CF91E9
:100730000895089580E090E008950E94C913FC0197
:1007400024813581232B31F421E061157105A1F05D
:10075000FB0108C0FC01808191816115710531F4B4
:1007600021E0FC018081882339F005C00E94D61366
:1007700021E0892B09F020E0822F0895FC0180817F
:1007800091810C944D120F931F93CF93DF93EC0143
:1007900088819981009729F02A813B8126173707A4
:1007A00088F48B016F5F7F4F0E94E512009761F024
:1007B000998388831B830A832C813D81232B11F429
:1007C000FC01108281E001C080E0DF91CF911F9198
:1007D0000F910895EF92FF920F931F93CF93DF93A2
:1007E0001F921F92CDB7DEB78C0169831A82FC017C
:1007F000E480F580FFEFEF1AFF0AB701C4DF88231A
:1008000081F0F8012081318184819581BE016F5F83
:100810007F4F820F931F0E94DF13F801F582E4825D
:1008200081E00F900F90DF91CF911F910F91FF907A
:10083000EF900895EF92FF920F931F93CF93DF9362
:10084000EC017B018A01BA019EDF28813981811187
:100850000DC02115310519F0C9010E944D121982F0
:1008600018821D821C821B821A8206C01D830C8383
:10087000B701C9010E94DF13CE01DF91CF911F9113
:100880000F91FF90EF900895FC0111821082138266
:100890001282158214826115710549F0FB010190E5
:1008A0000020E9F73197AF01461B570BC3CF0895DE
:1008B0000F931F93CF93DF93EC018B016DEE72E0EA
:1008C000E3DFC801F7DC97FD04C0682FCE0182DFAB
:1008D000F8CFCE01DF91CF911F910F91089561154F
:1008E000710579F0FB0101900020E9F73197AF0124
:1008F000461B570BDC01ED91FC910280F381E02D4A
:10090000199480E090E008954F925F926F927F92E9
:10091000EF92FF920F931F93CF93DF93CDB7DEB784
:10092000A1970FB6F894DEBF0FBECDBF7C01FA01D0
:10093000CB0119A2223008F42AE08E010F5D1F4F6F
:10094000422E512C612C712CBF01A30192010E94F7
:100950008E11F901CA01015011096A3014F4605D69
:1009600001C0695CD8016C93232B242B252B61F7E4
:10097000B801C701B4DFA1960FB6F894DEBF0FBE71
:10098000CDBFDF91CF911F910F91FF90EF907F909E
:100990006F905F904F900895A2CF1F920F920FB665
:1009A0000F9211240BB60F922F933F934F935F93A7
:1009B0006F937F938F939F93AF93BF93EF93FF9327
:1009C00084EE93E046DDFF91EF91BF91AF919F914F
:1009D0008F917F916F915F914F913F912F910F90E8
:1009E0000BBE0F900FBE0F901F9018951F920F9285
:1009F0000FB60F9211240BB60F922F933F934F9384
:100A00005F936F937F938F939F93AF93BF93EF9376
:100A1000FF9384EE93E0B5DCFF91EF91BF91AF912E
:100A20009F918F917F916F915F914F913F912F9106
:100A30000F900BBE0F900FBE0F901F9018951F9236
:100A40000F920FB60F9211240BB60F922F933F9374
:100A50004F935F936F937F938F939F93AF93BF93C6
:100A6000EF93FF9381E894E0F4DCFF91EF91BF9165
:100A7000AF919F918F917F916F915F914F913F9136
:100A80002F910F900BBE0F900FBE0F901F901895D7
:100A90001F920F920FB60F9211240BB60F922F9345
:100AA0003F934F935F936F937F938F939F93AF93F6
:100AB000BF93EF93FF9381E894E063DCFF91EF91A4
:100AC000BF91AF919F918F917F916F915F914F9166
:100AD0003F912F910F900BBE0F900FBE0F901F9064
:100AE0001895362F90E0FC01ED5BFE4F4491FC0120
:100AF000ED5FFD4F2491FC01E354FE4F9491992347
:100B000009F46BC0442309F455C050E0FA01319751
:100B1000E231F10508F04EC08827EE58FF4F8F4FA5
:100B20000C94B011809180008F7707C08091800075
:100B30008F7D03C080918000877F809380003AC0C2
:100B400084B58F7702C084B58F7D84BD33C080911A
:100B5000B0008F7703C08091B0008F7D8093B0008C
:100B600029C0809190008F7707C0809190008F7D81
:100B700003C080919000877F809390001BC080917C
:100B8000A0008F7707C08091A0008F7D03C0809167
:100B9000A000877F8093A0000DC0809120018F77F7
:100BA00007C0809120018F7D03C080912001877F45
:100BB00080932001E92FF0E0EE0FFF1FE757FE4F73
:100BC000A591B4918FB7F894EC91311103C02095A1
:100BD0002E2301C02E2B2C938FBF0895CF93DF932C
:100BE000EC0160E08E817DDF61E08E817ADF60E084
:100BF0008E8177DF8BE891E00197F1F7DF91CF915C
:100C000008953FB7F8948091860390918703A0914F
:100C10008803B091890326B5A89B05C02F3F19F022
:100C20000196A11DB11D3FBFBA2FA92F982F88276C
:100C3000820F911DA11DB11DBC01CD0142E0660FC7
:100C4000771F881F991F4A95D1F708951F920F9219
:100C50000FB60F9211242F933F938F939F93AF93CF
:100C6000BF9380918A0390918B03A0918C03B091E4
:100C70008D033091850323E0230F2D3720F4019657
:100C8000A11DB11D05C026E8230F0296A11DB11DAF
:100C90002093850380938A0390938B03A0938C0306
:100CA000B0938D038091860390918703A091880370
:100CB000B09189030196A11DB11D80938603909385
:100CC0008703A0938803B0938903BF91AF919F914D
:100CD0008F913F912F910F900FBE0F901F901895FD
:100CE000CF92DF92EF92FF920F931F93CF93DF93F8
:100CF0007C016C0187E0C80ED11CC0E0D0E0062F5B
:100D000010E0B8010C2E02C0759567950A94E2F7C1
:100D10006170F60181916F01E4DE2196C430D10546
:100D200081F7C701DF91CF911F910F91FF90EF9055
:100D3000DF90CF9053CFCF92DF92EF92FF920F933D
:100D40001F93CF93DF93EC01F62E642F8C81C9DEC5
:100D50008D818F3F11F060E0C4DE8F850F2D10E094
:100D600084FF23C06E0187E0C80ED11CE12CF12C5A
:100D7000B8010E2C02C0759567950A94E2F7617070
:100D8000F60181916F01ADDEFFEFEF1AFF0A88E0F7
:100D9000E816F10469F7CE01DF91CF911F910F9111
:100DA000FF90EF90DF90CF9019CFB80184E0759558
:100DB00067958A95E1F7CE0193DF6F2DCE01DF9124
:100DC000CF911F910F91FF90EF90DF90CF9088CF40
:100DD00041E0B1DF81E090E0089540E0ACCF61E018
:100DE000FCDF8BE39FE10197F1F708951F920F92CB
:100DF0000FB60F9211240BB60F922F933F934F9380
:100E00005F936F937F938F939F93AF93BF93EF9372
:100E1000FF938091B900887F803609F49CC068F503
:100E2000883209F45BC090F4803109F454C038F47E
:100E3000882309F4F6C0883009F44DC0F5C0883124
:100E400009F44CC0803209F45DC0EEC0803409F46E
:100E500068C048F4803309F455C0883309F0E4C011
:100E60008093BD03D8C0803509F44FC0883509F49C
:100E70005DC0883409F0D8C0D6C0883909F4C7C02D
:100E8000A8F4883709F467C038F4883609F463C0D9
:100E9000803709F460C0C8C0883809F4B8C0803908
:100EA00009F45FC0803809F0BFC05BC0803B09F423
:100EB00086C038F4803A09F466C0883A09F47FC0E5
:100EC000B3C0803C09F4A7C0883C09F4A4C0883BA7
:100ED00009F48AC0A9C080919A0310C09091BC0304
:100EE0008091BB03981770F5E091BC0381E08E0FF1
:100EF0008093BC03F0E0E556FC4F80818093BB00FB
:100F000085EC86C08093BD038EC0E091BC0381E078
:100F10008E0F8093BC038091BB00F0E0E556FC4F40
:100F200080839091BC038091BB036EC0E091BC03B1
:100F300081E08E0F8093BC038091BB00F0E0E5560A
:100F4000FC4F80838091BE0381116DC081E080934E
:100F5000990384EA61C083E08093BF031092840305
:100F6000CFCF80918403803208F051C0E091840398
:100F700081E08E0F809384038091BB00F0E0EC59F8
:100F8000FC4F8083BDCF85EC8093BC001092BF03E3
:100F900080918403803230F4E0918403F0E0EC59D6
:100FA000FC4F10826091840370E0E0916203F09145
:100FB000630384E693E019951092840335C084E0BE
:100FC0008093BF031092610310926003E0915E036F
:100FD000F0915F03199580916003811105C081E054
:100FE0008093600310923E03E091610381E08E0FD5
:100FF00080936103F0E0E25CFC4F80818093BB0052
:101000009091610380916003981708F479CF85E887
:101010008093BC0009C085EC8093BC001092BF0394
:1010200003C01092BD03D0DAFF91EF91BF91AF9151
:101030009F918F917F916F915F914F913F912F91F0
:101040000F900BBE0F900FBE0F901F90189590E061
:10105000FC01ED5FFD4F2491FC01E354FE4F8491B0
:10106000882399F090E0880F991FFC01ED55FE4F01
:10107000A591B491FC01E757FE4F859194918FB7EC
:10108000F894EC91E22BEC938FBF0895EF92FF92CE
:101090000F931F93CF93DF93EC01623018F08F858D
:1010A00088608F876B8B1C8A80E48D8B80E18E8BB0
:1010B00080E58F8B8C81CBDF8D818F3F09F0C7DF7F
:1010C0008E81C5DF7E0187E0E80EF11C00E010E0B4
:1010D0008F8584FD03C084E090E002C088E090E04A
:1010E000081719073CF4F70181917F01B0DF0F5F0A
:1010F0001F4FEECF8BE39DE00197F1F760E08C810D
:10110000F0DC60E08E81EDDC8D818F3F11F060E0DE
:10111000E8DC6F8564FD19C063E0CE01E1DD0BE41E
:1011200016E4C8010197F1F763E0CE01D9DDC801EB
:101130000197F1F763E0CE01D3DD83E592E00197FB
:10114000F1F762E0CE01CCDD13C06062CE0145DE76
:101150008BE496E40197F1F76F856062CE013DDE86
:1011600083E592E00197F1F76F856062CE0135DE8D
:101170006F856062CE0131DE84E0888B6CE0CE0149
:101180002CDECE012CDE82E0898B66E0CE01DF9181
:10119000CF911F910F91FF90EF901FCEFC01A0897E
:1011A000B18982E08C93A485B5851C92A685B7850C
:1011B0008FEC8C93108EA489B58986E08C93A289DC
:1011C000B3898C9180618C93A289B3898C9188605A
:1011D0008C93A289B3898C9180688C930288F3895F
:1011E000E02D80818F7D80830895843008F083E036
:1011F00090916705891710F08FEF890FE82FF0E0C5
:10120000EC5AFA4F6489606884E595E0E6CDCF93A7
:10121000DF93EC0140E050E06DEE72E00BDBCE01BD
:10122000DF91CF9108958F929F92AF92BF92CF920C
:10123000DF92EF92FF92E5DC4B015C0184EFC82E58
:10124000DD24D394E12CF12CDCDCDC01CB0188190A
:101250009909AA09BB09883E9340A105B10558F038
:1012600021E0C21AD108E108F10888EE880E83E077
:10127000981EA11CB11CC114D104E104F10421F792
:10128000FF90EF90DF90CF90BF90AF909F908F90A6
:1012900008952091E3039091E203213208F04AC0BF
:1012A0008091BF038111FCCF32E03093BF0331E066
:1012B0003093BE033FEF3093BD031092BC032093E5
:1012C000BB03A2ECB3E04BE953E0FA013E2F341B21
:1012D000321718F43D913193F9CF10929A0320916F
:1012E0009A03990F922B90939A03909199039130BE
:1012F00061F41092990390919A039093BB0090919E
:10130000BC0093FDF8CF95EC01C095EE9093BC0026
:101310009091BF039230E1F39091BD039F3F79F02C
:101320008091BD03803241F08091BD03803331F064
:1013300084E005C081E003C082E001C083E0109238
:10134000C1031092E3031092C0030895CF93DF937B
:10135000EC0185E0C633D807D1F060913605709175
:1013600037056115710539F040913A0550913B05FB
:10137000CE0160DA0CC088819981009711F00E943B
:101380004D12198218821D821C821B821A82CE0184
:10139000DF91CF910895CF93DF93EC0180913605D3
:1013A000909137050097C9F06881798161157105C1
:1013B00091F040913805509139052C813D814217BB
:1013C000530748F00E94DF138C819D8190933B0569
:1013D00080933A0518C00E944D128881998190939C
:1013E0003705809336058A819B81909339058093D8
:1013F00038058C819D8190933B0580933A05198235
:1014000018821B821A821D821C82DF91CF9108955F
:101410008F929F92AF92BF92CF92DF92EF92FF9204
:101420000F931F93CF93DF93EC016A017B019A0125
:10143000AB01C701B6016ED7882319F062E373E0F0
:1014400024C046015701E894B7F82FEF3FEF4FE76C
:101450005FE7C501B4015ED781110CC02FEF3FEFEC
:101460004FE75FE7C501B4018BD518161CF466E39E
:1014700073E00BC02FEF3FEF4FE75FE4C701B6010A
:1014800045D7181684F46AE373E0CE01DF91CF915B
:101490001F910F91FF90EF90DF90CF90BF90AF9092
:1014A0009F908F901CCA2FEF3FEF4FE75FECC70173
:1014B000B60166D587FDE7CF20E030E0A901C7017E
:1014C000B6015ED587FF0EC0E881F9810190F081F9
:1014D000E02D6DE2CE0119958C01F7FAF094F7F842
:1014E000F09402C000E010E02AE037ED43EA5BE34D
:1014F000C701B6017BD66B017C01DCD64B015C01D8
:1015000043D59B01AC01C701B6016FD66B017C01CD
:101510002AE0B501A401CE01F7D9080F191FE8810F
:10152000F9810190F081E02D6EE2CE011995080F4E
:10153000191F20E030E040E251E4C701B60185D533
:101540004B015C01B7D66B01E12CF12C2AE0B7010D
:10155000A601CE01D9D9080F191FC701B60114D5AC
:101560009B01AC01C501B40140D620E030E040E26F
:1015700051E46BD59FD6AB0160E070E02AE0CE016C
:10158000C3D9800F911FDF91CF911F910F91FF90D1
:10159000EF90DF90CF90BF90AF909F908F90089585
:1015A000CF93DF9300D000D0CDB7DEB7789484B569
:1015B000826084BD84B5816084BD85B5826085BD4F
:1015C00085B5816085BD80916E00816080936E00DD
:1015D00010928100809181008260809381008091CF
:1015E0008100816080938100809180008160809380
:1015F00080008091B10084608093B1008091B00040
:1016000081608093B000809191008260809391000E
:101610008091910081608093910080919000816021
:10162000809390008091A10082608093A1008091BE
:10163000A10081608093A1008091A00081608093CF
:10164000A00080912101826080932101809121017D
:10165000816080932101809120018160809320012D
:1016600080917A00846080937A0080917A00826011
:1016700080937A0080917A00816080937A008091D3
:101680007A00806880937A001092C10081E894E02B
:1016900085DD84EE93E082DD62E084E595E0F6DCB2
:1016A00010928F0310928E031092C1031092E303E5
:1016B0001092BF0381E08093BE031092990361E012
:1016C00084E10FDA61E085E10CDA8091B9008E7F68
:1016D0008093B9008091B9008D7F8093B90088E430
:1016E0008093B80085E48093BC0066E372E084E5F3
:1016F00095E052D981E079DD67E472E084E595E018
:101700004BD90CE284EE93E00E940B02892B09F482
:1017100039C084EE93E00E94E9018C3279F569E5E5
:1017200072E08EE495E00BD8882321F164EE73E03B
:10173000CE010196BDD8CE0101962DDECE010196D7
:101740001DD880E395E002DE66E672E081E894E071
:1017500023D9409134055091350560913005709141
:10176000310581E894E00E94960162E772E081E829
:1017700094E012D98EE495E04ADD04C0682F8EE42F
:1017800095E028D881E894E00E940B02892B09F4A7
:10179000A9C181E894E00E94E9018C3209F09DC161
:1017A00068E772E08EE495E00E949F03882309F4C5
:1017B00068C061E874E0CE0101967AD8CE01019646
:1017C000EADDCE0101960E94BE0367E872E086E37F
:1017D00095E00E949F038823E1F084E595E0FFDA1D
:1017E00080E003DD69E872E084E595E0D5D881E02A
:1017F000FCDC61E972E084E595E0CED860E984E53F
:1018000095E0E6DA60E984E595E0E2DA86E395E0E2
:10181000FEDC63EC72E086E395E00E949F03882380
:10182000A1F084E595E0DBDA80E0DFDC6FE972E0CF
:1018300084E595E0B1D881E0D8DC6BEA72E084E51C
:1018400095E0AAD886E395E0E2DC69EB72E086E3F6
:1018500095E00E949F038823A1F084E595E0BFDA1C
:1018600080E0C3DC66E372E084E595E095D881E032
:10187000BCDC67E472E084E595E08ED886E395E011
:10188000C6DC6BEB72E08EE495E00E949F03882338
:1018900009F4A5C061E874E0CE01019609D8CE0133
:1018A000019679DDCE0101960E94BE0388E495E0A1
:1018B0004DDD8091480590914905009711F0D7D1F1
:1018C00003C060E070E0CB016093950370939603D2
:1018D000809397039093980365EC72E081E894E01D
:1018E0005BD884E595E07BDA80E07FDC6AED72E02E
:1018F00084E595E051D881E078DC409195035091E2
:101900009603609197037091980384E595E080DDDC
:1019100060E984E595E05CDA64EF84E595E058DA07
:1019200040919503509196036091970370919803AD
:1019300081E894E06DDD62E772E081E894E00E9466
:101940006F046BEE72E081E894E00E946F0486E31E
:1019500095E05DDC68DC8090950390909603A09004
:101960009703B0909803C501B401A4D46B017C0126
:1019700060939203D092910380E090E005D39B01A5
:10198000AC01C501B40131D420E030E048EC52E4B0
:101990005CD390D4162F6093930370939403609359
:1019A000900381E08093C0030093E2031092C1038F
:1019B0001092E30363E08EE195E00E946B036D2DCE
:1019C0008EE195E00E946B036C2D8EE195E00E9404
:1019D0006B03612F8EE195E00E946B035ADC6EEE83
:1019E00072E08EE495E00E949F03882309F471C0A1
:1019F00061E874E0CE0101960E945804CE01019680
:101A0000CADCCE0101960E94BE0382E495E09EDC12
:101A100063EC72E082E495E00E949F038823F9F072
:101A200086E395E0F4DB81E08093C0030093E2035A
:101A30001092C1031092E30365E08EE195E00E94ED
:101A40006B0327DCF0DB66EF72E081E894E00E9434
:101A50006F046BEE72E081E894E00E946F0467E827
:101A600072E082E495E00E949F03882399F084E568
:101A700095E0B5D980E0B9DB68E073E084E595E0F6
:101A80000E94CC0481E0B1DB68E173E084E595E07D
:101A90000E94CC0469EB72E082E495E00E949F030F
:101AA0008823B9F084E595E09AD980E09EDB68E070
:101AB00073E084E595E00E94CC0481E096DB66E269
:101AC00073E084E595E00E94CC0486E395E09FDB1B
:101AD000AADB8EE495E09BDB05C0682F8EE495E0E1
:101AE0000E94EA030E94B1020DCE8AE295E00E94B4
:101AF000BE0380E395E00E94BE0386E395E00E946A
:101B0000BE038CE395E00E94BE0382E495E00E9450
:101B1000BE0388E495E00E94BE038EE495E00C9439
:101B2000BE03E4EEF3E01382128288EE93E0A0E0BD
:101B3000B0E084839583A683B7832AE032E03183C3
:101B400020834DEC50E0558744874CEC50E057879C
:101B5000468748EC50E0518B408B49EC50E0538B6A
:101B6000428B4AEC50E0558B448B4EEC50E0578B47
:101B7000468B118E128E138E148EE1E8F4E01382E0
:101B8000128284839583A683B7833183208325ECD7
:101B900030E03587248724EC30E03787268720EC37
:101BA00030E0318B208B21EC30E0338B228B22EC28
:101BB00030E0358B248B26EC30E0378B268B118E72
:101BC000128E138E148EEEE1F5E01382128284835E
:101BD0009583A683B7838CE192E091838083E4E5CB
:101BE000F5E0138212828EE292E09183808389E293
:101BF00084838FEF85838BE2868383E2878385E20C
:101C0000808780E3818782E3828713861486158626
:101C10001686178661E0CF0139DA6DEE72E08EE448
:101C200095E00E9444046DEE72E088E495E00E9425
:101C300044046DEE72E082E495E00E9444046DEE8F
:101C400072E08CE395E00E9444046DEE72E086E35E
:101C500095E00E9444046DEE72E080E395E00E94FE
:101C600044046DEE72E08AE295E00C944404662729
:101C7000772700C06F927F928F929F92AF92BF9210
:101C8000CF92DF92EF92FF920F931F93CF93DF9348
:101C9000EC017B016115710519F0DB018D939C93BB
:101CA0008E010F5F1F4F7880872D90E049D1892BDF
:101CB00011F0E801F5CFBDE27B1205C00F5F1F4FA9
:101CC0007980C1E008C0EBE27E1204C08E010E5F95
:101CD0001F4F7980C0E06801F1E0CF1AD10843E0DE
:101CE00050E060E171E0C60133D1892BE9F468016D
:101CF00022E0C20ED11C45E050E06BE071E0C6016D
:101D000027D1892B21F4680187E0C80ED11CE1148A
:101D1000F10419F0D701CD92DC92C111F9C060E055
:101D200070E080E89FE7FDC043E050E068E071E0CC
:101D3000C6010ED1892B51F4E114F10409F4EDC070
:101D40000E5F1F4FF70111830083E7C0680160E059
:101D500070E0CB0100E010E0F601D0EDD70DDA30F5
:101D600050F52C2F2260622E2C2F2870C2FF05C048
:101D7000211127C00F5F1F4F24C0222311F00150F3
:101D80001109A5E0B0E09B01AC0116D24B015C014A
:101D9000880C991CAA1CBB1CC501B4016D0F711DD8
:101DA000811D911D6839A9E97A078A07A9E19A0777
:101DB00040F0C66005C0DE3F51F4C3FD44C0C860BA
:101DC0006C2EBFEFCB1ADB0A7080C62DC5CF2D2F2E
:101DD0002F7D2531C1F540814D3211F4C06106C01F
:101DE0004B3221F0319621E030E006C03296D60128
:101DF00011964C9122E030E0A0EDA40FAA3018F02B
:101E0000E21BF30B20C040E050E04038BCE05B0731
:101E10005CF49A01220F331F220F331F420F531F0E
:101E2000440F551F4A0F511D3196DF0111972C9118
:101E3000A0EDA20FAA3048F3C4FF03C0519541950D
:101E40005109040F151FC1FF07C0E114F10421F06F
:101E50003197D701ED93FC9397D0C370C33019F03D
:101E60006B017C0106C06B017C01F7FAF094F7F876
:101E7000F09420E030E0A901C701B60181D08823A9
:101E800009F443C017FF06C0119501951109C7E277
:101E9000D1E002C0CFE3D1E05E01B8E1AB1AB108F6
:101EA0004601BE2DAF2D90E2E92EF12C0E151F0537
:101EB0007CF0FE012591359145915491B4018B2F11
:101EC0009A2FC3D04B01B82FA92F0E191F09EECF9F
:101ED0002497F594E794CA15DB0541F76401EB2ECE
:101EE000FA2E8E2D880F8F2D881F8F3F41F020E016
:101EF00030E0A901C701B60143D0811106C082E2DA
:101F000090E090936D0580936C05C701B60109C000
:101F100060E070E080E89FEF04C060E070E080EC7B
:101F20009FE7DF91CF911F910F91FF90EF90DF908E
:101F3000CF90BF90AF909F908F907F906F900895BB
:101F40009111E6C0803219F089508550D0F708957C
:101F5000FB01DC014150504088F08D9181341CF030
:101F60008B350CF4805E659161341CF06B350CF49C
:101F7000605E861B611171F3990B0895881BFCCF7D
:101F800040D008F481E00895E89409C097FB3EF43E
:101F900090958095709561957F4F8F4F9F4F9923B6
:101FA000A9F0F92F96E9BB279395F6958795779534
:101FB0006795B795F111F8CFFAF4BB0F11F460FFF4
:101FC0001BC06F5F7F4F8F4F9F4F16C0882311F04C
:101FD00096E911C0772321F09EE8872F762F05C060
:101FE000662371F096E8862F70E060E02AF09A95FB
:101FF000660F771F881FDAF7880F9695879597F9F0
:102000000895990F0008550FAA0BE0E8FEEF161689
:102010001706E807F907C0F012161306E407F507DC
:1020200098F0621B730B840B950B39F40A2661F050
:10203000232B242B252B21F408950A2609F4A140F3
:10204000A6958FEF811D811D08950BD07BC06CD0AC
:1020500028F071D018F0952309F05DC062C01124FA
:10206000A5C081D0A0F3959FD1F3950F50E0551FE7
:10207000629FF001729FBB27F00DB11D639FAA27DD
:10208000F00DB11DAA1F649F6627B00DA11D661F2C
:10209000829F2227B00DA11D621F739FB00DA11D4D
:1020A000621F839FA00D611D221F749F3327A00D07
:1020B000611D231F849F600D211D822F762F6A2FA3
:1020C00011249F5750408AF0E1F088234AF0EE0F28
:1020D000FF1FBB1F661F771F881F91505040A9F735
:1020E0009E3F510570F017C061C05F3FECF3983E12
:1020F000DCF3869577956795B795F795E7959F5F9C
:10210000C1F7FE2B880F911D9695879597F9089535
:1021100099278827089597F99F6780E870E060E025
:1021200008959FEF80EC089500240A941616170670
:1021300018060906089500240A94121613061406B8
:1021400005060895092E0394000C11F4882352F01B
:10215000BB0F40F4BF2B11F460FF04C06F5F7F4FD3
:102160008F4F9F4F089557FD9058440F551F59F0BA
:102170005F3F71F04795880F97FB991F61F09F3F74
:1021800079F087950895121613061406551FF2CF9D
:102190004695F1DF08C0161617061806991FF1CFED
:1021A00086957105610508940895E894BB27662714
:1021B0007727CB0197F9089509D0A59F900DB49F7B
:1021C000900DA49F800D911D11240895A29FB00130
:1021D000B39FC001A39F700D811D1124911DB29F5B
:1021E000700D811D1124911D08955058BB27AA27F9
:1021F0000ED0A8CF99DF30F09EDF20F031F49F3F62
:1022000011F41EF48ECF0EF4E095E7FB84CFE92F96
:10221000AADF80F3BA17620773078407950718F0DF
:1022200071F49EF5C2CF0EF4E0950B2EBA2FA02DBF
:102230000B01B90190010C01CA01A0011124FF2773
:10224000591B99F0593F50F4503E68F11A16F0406E
:10225000A22F232F342F4427585FF3CF469537956D
:102260002795A795F0405395C9F77EF41F16BA0B32
:10227000620B730B840BBAF09150A1F0FF0FBB1FE0
:10228000661F771F881FC2F70EC0BA0F621F731F29
:10229000841F48F4879577956795B795F7959E3F86
:1022A00008F0B3CF9395880F08F09927EE0F979514
:1022B0008795089560DF88F09F5790F0B92F992790
:1022C000B751A0F0D1F0660F771F881F991F1AF041
:1022D000BA95C9F712C0B13081F067DFB1E0089557
:1022E00064CF672F782F8827B85F39F0B93FCCF3D8
:1022F000869577956795B395D9F73EF49095809537
:10230000709561957F4F8F4F9F4F08957ADE08F447
:102310008FEF089576DE880B990B0895A1E21A2EAF
:10232000AA1BBB1BFD010DC0AA1FBB1FEE1FFF1F79
:10233000A217B307E407F50720F0A21BB30BE40BC9
:10234000F50B661F771F881F991F1A9469F7609510
:102350007095809590959B01AC01BD01CF010895CA
:10236000EE0FFF1F881F8BBF0790F691E02D199489
:10237000CF93DF938230910510F482E090E0E091FA
:102380007005F091710520E030E0C0E0D0E03097BA
:1023900011F14081518148175907C0F0481759077A
:1023A00061F482819381209719F09B838A832BC0EB
:1023B000909371058093700526C02115310519F0A1
:1023C0004217530718F49A01BE01DF01EF010280A2
:1023D000F381E02DDCCF2115310509F1281B390BE4
:1023E0002430310590F412968D919C9113976115CC
:1023F000710521F0FB019383828304C090937105E2
:1024000080937005FD01329644C0FD01E20FF31F79
:1024100081939193225031092D933C933AC020919E
:102420006E0530916F05232B41F42091020230910B
:10243000030230936F0520936E05209100023091C6
:1024400001022115310541F42DB73EB74091040238
:1024500050910502241B350BE0916E05F0916F053C
:10246000E217F307A0F42E1B3F0B2817390778F06B
:10247000AC014E5F5F4F2417350748F04E0F5F1FCA
:1024800050936F0540936E058193919302C0E0E0F5
:10249000F0E0CF01DF91CF9108950F931F93CF9379
:1024A000DF93009709F48CC0FC01329713821282EB
:1024B00000917005109171050115110581F42081BD
:1024C0003181820F931F20916E0530916F0528177F
:1024D000390779F5F0936F05E0936E0571C0D80167
:1024E00040E050E0AE17BF0750F412962D913C919A
:1024F0001397AD012115310509F1D901F3CF9D01E4
:10250000DA013383228360817181860F971F8217DE
:10251000930769F4EC0128813981260F371F2E5F5C
:102520003F4F318320838A819B8193838283452B14
:1025300029F4F0937105E093700542C01396FC9363
:10254000EE931297ED01499159919E01240F351F89
:10255000E217F30771F480819181840F951F029631
:1025600011969C938E938281938113969C938E9364
:102570001297E0E0F0E0D80112968D919C911397AC
:10258000009719F0F8018C01F6CF8D919C9198017C
:102590002E5F3F4F820F931F20916E0530916F0584
:1025A0002817390769F4309729F4109271051092B1
:1025B000700502C01382128210936F0500936E059E
:1025C000DF91CF911F910F9108956F927F928F921B
:1025D0009F92AF92BF92CF92DF92EF92FF920F93B2
:1025E0001F93CF93DF93EC01009781F4CB01DF9130
:1025F000CF911F910F91FF90EF90DF90CF90BF9000
:10260000AF909F908F907F906F90B2CEFC01E60FBD
:10261000F71F9C0122503109E217F30708F4A8C004
:10262000D9010D911C91119706171707A8F00530D5
:10263000110508F49BC0C80104978617970708F492
:1026400095C002501109061B170B019311936D934E
:102650007C93CF0122DF8AC05B01A01AB10A4C0132
:10266000800E911EA0917005B091710540E050E080
:10267000E12CF12C109709F44AC0A815B905D1F541
:102680006D907C901197630182E0C80ED11CCA1432
:10269000DB0480F1A3014A195B096A0182E0C80EDC
:1026A000D11C1296BC9012971396AC91B5E0CB1644
:1026B000D10440F0B282A38351834083D9016D934A
:1026C0007C930AC00E5F1F4FC301800F911FF90159
:1026D00091838083EB2DFA2FE114F10431F0D701BF
:1026E0001396FC93EE93129741C0F0937105E0931B
:1026F00070053CC08D919C9111974817590708F4BB
:10270000AC017D0112960D90BC91A02DB3CF8091AC
:102710006E0590916F0588159905E1F446175707E6
:10272000C8F48091000290910102009741F48DB7A6
:102730009EB74091040250910502841B950BE81747
:10274000F907B0F4F0936F05E0936E05F90171831A
:1027500060830CC0CB010CDE7C01009749F0A8011E
:10276000BE011BD0CE0199DEC70104C0CE0102C05C
:1027700080E090E0DF91CF911F910F91FF90EF905B
:10278000DF90CF90BF90AF909F908F907F906F9091
:10279000089581E090E0F89419C0FB01DC0102C0CB
:1027A00001900D9241505040D8F70895FB01DC0193
:1027B0008D91019080190110D9F3990B0895FB01B7
:1027C000DC0101900D920020E1F7089511E0C6E2CE
:1027D000D1E000E005C0802FFE01C2DD2196011D81
:0E27E000C732D10780E00807B1F7F894FFCFA9
:1027EE00000072058000000000004A029601DA0126
:1027FE0090020B02E901FD01000000006B033C0397
:10280E009A03160334032503170300000000E8069D
:10281E0096019A03990353656C6563746F72204138
:10282E0075746F6D612D0074697A61646F206465D3
:10283E0020526573697374210076616C6F726573D3
:10284E004C69646F730056616C6F72206C69646FB3
:10285E003A00206F686D73007374617475735F61F5
:10286E00726475696E6F00300041726475696E6FC7
:10287E0000446573636F6E65637461646F2100431A
:10288E006F6E65637461646F2120004167756172BC
:10289E0064616E646F2E2E2E003200726563656267
:1028AE0065727631002D2D3E2056616C6F7220724E
:1028BE006563656269646F3A200056616C6F7220C1
:1028CE00646573656A61646F3A20000D0A006C6579
:1028DE006974757261004D616E64616E646F206320
:1028EE006F6D616E646F21004C6569747572612045
:1028FE0045787465726E61004465736162696C69D6
:10290E00746164612100486162696C69746164611B
:0E291E0021006E616E00696E66006F766600C5
:00000001FF
